{
	"bookingalattani.sol": {
		"BookingAlatTani": {
			"abi": [
				{
					"inputs": [],
					"stateMutability": "nonpayable",
					"type": "constructor"
				},
				{
					"inputs": [],
					"name": "admin",
					"outputs": [
						{
							"internalType": "address",
							"name": "",
							"type": "address"
						}
					],
					"stateMutability": "view",
					"type": "function"
				},
				{
					"inputs": [
						{
							"internalType": "uint256",
							"name": "_id",
							"type": "uint256"
						},
						{
							"internalType": "string",
							"name": "_jadwal",
							"type": "string"
						}
					],
					"name": "bookingAlat",
					"outputs": [],
					"stateMutability": "nonpayable",
					"type": "function"
				},
				{
					"inputs": [
						{
							"internalType": "uint256",
							"name": "",
							"type": "uint256"
						}
					],
					"name": "daftarAlat",
					"outputs": [
						{
							"internalType": "string",
							"name": "nama",
							"type": "string"
						},
						{
							"internalType": "bool",
							"name": "terpesan",
							"type": "bool"
						},
						{
							"internalType": "address",
							"name": "pemesan",
							"type": "address"
						},
						{
							"internalType": "string",
							"name": "jadwal",
							"type": "string"
						}
					],
					"stateMutability": "view",
					"type": "function"
				},
				{
					"inputs": [],
					"name": "jumlahAlat",
					"outputs": [
						{
							"internalType": "uint256",
							"name": "",
							"type": "uint256"
						}
					],
					"stateMutability": "view",
					"type": "function"
				},
				{
					"inputs": [
						{
							"internalType": "uint256",
							"name": "_id",
							"type": "uint256"
						}
					],
					"name": "lihatAlat",
					"outputs": [
						{
							"internalType": "string",
							"name": "",
							"type": "string"
						},
						{
							"internalType": "bool",
							"name": "",
							"type": "bool"
						},
						{
							"internalType": "address",
							"name": "",
							"type": "address"
						},
						{
							"internalType": "string",
							"name": "",
							"type": "string"
						}
					],
					"stateMutability": "view",
					"type": "function"
				},
				{
					"inputs": [
						{
							"internalType": "string",
							"name": "_nama",
							"type": "string"
						}
					],
					"name": "tambahAlat",
					"outputs": [],
					"stateMutability": "nonpayable",
					"type": "function"
				}
			],
			"devdoc": {
				"kind": "dev",
				"methods": {},
				"version": 1
			},
			"evm": {
				"assembly": "    /* \"bookingalattani.sol\":60:1849  contract BookingAlatTani {... */\n  mstore(0x40, 0x80)\n    /* \"bookingalattani.sol\":123:174  constructor() {... */\n  callvalue\n  dup1\n  iszero\n  tag_1\n  jumpi\n  revert(0x00, 0x00)\ntag_1:\n  pop\n    /* \"bookingalattani.sol\":156:166  msg.sender */\n  caller\n    /* \"bookingalattani.sol\":148:153  admin */\n  0x00\n  0x00\n    /* \"bookingalattani.sol\":148:166  admin = msg.sender */\n  0x0100\n  exp\n  dup2\n  sload\n  dup2\n  0xffffffffffffffffffffffffffffffffffffffff\n  mul\n  not\n  and\n  swap1\n  dup4\n  0xffffffffffffffffffffffffffffffffffffffff\n  and\n  mul\n  or\n  swap1\n  sstore\n  pop\n    /* \"bookingalattani.sol\":60:1849  contract BookingAlatTani {... */\n  dataSize(sub_0)\n  dup1\n  dataOffset(sub_0)\n  0x00\n  codecopy\n  0x00\n  return\nstop\n\nsub_0: assembly {\n        /* \"bookingalattani.sol\":60:1849  contract BookingAlatTani {... */\n      mstore(0x40, 0x80)\n      callvalue\n      dup1\n      iszero\n      tag_1\n      jumpi\n      revert(0x00, 0x00)\n    tag_1:\n      pop\n      jumpi(tag_2, lt(calldatasize, 0x04))\n      shr(0xe0, calldataload(0x00))\n      dup1\n      0x273e7049\n      eq\n      tag_3\n      jumpi\n      dup1\n      0x2efd9e6b\n      eq\n      tag_4\n      jumpi\n      dup1\n      0x62a6782f\n      eq\n      tag_5\n      jumpi\n      dup1\n      0x9cb9119b\n      eq\n      tag_6\n      jumpi\n      dup1\n      0xade52d8d\n      eq\n      tag_7\n      jumpi\n      dup1\n      0xf851a440\n      eq\n      tag_8\n      jumpi\n    tag_2:\n      revert(0x00, 0x00)\n        /* \"bookingalattani.sol\":435:751  function tambahAlat(string memory _nama) public {... */\n    tag_3:\n      tag_9\n      0x04\n      dup1\n      calldatasize\n      sub\n      dup2\n      add\n      swap1\n      tag_10\n      swap2\n      swap1\n      tag_11\n      jump\t// in\n    tag_10:\n      tag_12\n      jump\t// in\n    tag_9:\n      stop\n        /* \"bookingalattani.sol\":1468:1846  function lihatAlat(uint _id)... */\n    tag_4:\n      tag_13\n      0x04\n      dup1\n      calldatasize\n      sub\n      dup2\n      add\n      swap1\n      tag_14\n      swap2\n      swap1\n      tag_15\n      jump\t// in\n    tag_14:\n      tag_16\n      jump\t// in\n    tag_13:\n      mload(0x40)\n      tag_17\n      swap5\n      swap4\n      swap3\n      swap2\n      swap1\n      tag_18\n      jump\t// in\n    tag_17:\n      mload(0x40)\n      dup1\n      swap2\n      sub\n      swap1\n      return\n        /* \"bookingalattani.sol\":306:330  Alat[] public daftarAlat */\n    tag_5:\n      tag_19\n      0x04\n      dup1\n      calldatasize\n      sub\n      dup2\n      add\n      swap1\n      tag_20\n      swap2\n      swap1\n      tag_15\n      jump\t// in\n    tag_20:\n      tag_21\n      jump\t// in\n    tag_19:\n      mload(0x40)\n      tag_22\n      swap5\n      swap4\n      swap3\n      swap2\n      swap1\n      tag_18\n      jump\t// in\n    tag_22:\n      mload(0x40)\n      dup1\n      swap2\n      sub\n      swap1\n      return\n        /* \"bookingalattani.sol\":853:943  function jumlahAlat() public view returns(uint){... */\n    tag_6:\n      tag_23\n      tag_24\n      jump\t// in\n    tag_23:\n      mload(0x40)\n      tag_25\n      swap2\n      swap1\n      tag_26\n      jump\t// in\n    tag_25:\n      mload(0x40)\n      dup1\n      swap2\n      sub\n      swap1\n      return\n        /* \"bookingalattani.sol\":1040:1373  function bookingAlat(uint _id, string memory _jadwal) public {... */\n    tag_7:\n      tag_27\n      0x04\n      dup1\n      calldatasize\n      sub\n      dup2\n      add\n      swap1\n      tag_28\n      swap2\n      swap1\n      tag_29\n      jump\t// in\n    tag_28:\n      tag_30\n      jump\t// in\n    tag_27:\n      stop\n        /* \"bookingalattani.sol\":94:114  address public admin */\n    tag_8:\n      tag_31\n      tag_32\n      jump\t// in\n    tag_31:\n      mload(0x40)\n      tag_33\n      swap2\n      swap1\n      tag_34\n      jump\t// in\n    tag_33:\n      mload(0x40)\n      dup1\n      swap2\n      sub\n      swap1\n      return\n        /* \"bookingalattani.sol\":435:751  function tambahAlat(string memory _nama) public {... */\n    tag_12:\n        /* \"bookingalattani.sol\":516:521  admin */\n      0x00\n      0x00\n      swap1\n      sload\n      swap1\n      0x0100\n      exp\n      swap1\n      div\n      0xffffffffffffffffffffffffffffffffffffffff\n      and\n        /* \"bookingalattani.sol\":502:521  msg.sender == admin */\n      0xffffffffffffffffffffffffffffffffffffffff\n      and\n        /* \"bookingalattani.sol\":502:512  msg.sender */\n      caller\n        /* \"bookingalattani.sol\":502:521  msg.sender == admin */\n      0xffffffffffffffffffffffffffffffffffffffff\n      and\n      eq\n        /* \"bookingalattani.sol\":494:537  require(msg.sender == admin, \"Hanya admin\") */\n      tag_36\n      jumpi\n      mload(0x40)\n      0x08c379a000000000000000000000000000000000000000000000000000000000\n      dup2\n      mstore\n      0x04\n      add\n      tag_37\n      swap1\n      tag_38\n      jump\t// in\n    tag_37:\n      mload(0x40)\n      dup1\n      swap2\n      sub\n      swap1\n      revert\n    tag_36:\n        /* \"bookingalattani.sol\":550:560  daftarAlat */\n      0x01\n        /* \"bookingalattani.sol\":580:732  Alat({... */\n      mload(0x40)\n      dup1\n      0x80\n      add\n      0x40\n      mstore\n      dup1\n        /* \"bookingalattani.sol\":610:615  _nama */\n      dup4\n        /* \"bookingalattani.sol\":580:732  Alat({... */\n      dup2\n      mstore\n      0x20\n      add\n        /* \"bookingalattani.sol\":644:649  false */\n      0x00\n        /* \"bookingalattani.sol\":580:732  Alat({... */\n      iszero\n      iszero\n      dup2\n      mstore\n      0x20\n      add\n        /* \"bookingalattani.sol\":685:686  0 */\n      0x00\n        /* \"bookingalattani.sol\":580:732  Alat({... */\n      0xffffffffffffffffffffffffffffffffffffffff\n      and\n      dup2\n      mstore\n      0x20\n      add\n      mload(0x40)\n      dup1\n      0x20\n      add\n      0x40\n      mstore\n      dup1\n      0x00\n      dup2\n      mstore\n      pop\n      dup2\n      mstore\n      pop\n        /* \"bookingalattani.sol\":550:743  daftarAlat.push(... */\n      swap1\n      dup1\n      0x01\n      dup2\n      sload\n      add\n      dup1\n      dup3\n      sstore\n      dup1\n      swap2\n      pop\n      pop\n      0x01\n      swap1\n      sub\n      swap1\n      0x00\n      mstore\n      keccak256(0x00, 0x20)\n      swap1\n      0x03\n      mul\n      add\n      0x00\n      swap1\n      swap2\n      swap1\n      swap2\n      swap1\n      swap2\n      pop\n      0x00\n      dup3\n      add\n      mload\n      dup2\n      0x00\n      add\n      swap1\n      dup2\n      tag_40\n      swap2\n      swap1\n      tag_41\n      jump\t// in\n    tag_40:\n      pop\n      0x20\n      dup3\n      add\n      mload\n      dup2\n      0x01\n      add\n      exp(0x0100, 0x00)\n      dup2\n      sload\n      dup2\n      0xff\n      mul\n      not\n      and\n      swap1\n      dup4\n      iszero\n      iszero\n      mul\n      or\n      swap1\n      sstore\n      pop\n      0x40\n      dup3\n      add\n      mload\n      dup2\n      0x01\n      add\n      exp(0x0100, 0x01)\n      dup2\n      sload\n      dup2\n      0xffffffffffffffffffffffffffffffffffffffff\n      mul\n      not\n      and\n      swap1\n      dup4\n      0xffffffffffffffffffffffffffffffffffffffff\n      and\n      mul\n      or\n      swap1\n      sstore\n      pop\n      0x60\n      dup3\n      add\n      mload\n      dup2\n      0x02\n      add\n      swap1\n      dup2\n      tag_42\n      swap2\n      swap1\n      tag_41\n      jump\t// in\n    tag_42:\n      pop\n      pop\n      pop\n        /* \"bookingalattani.sol\":435:751  function tambahAlat(string memory _nama) public {... */\n      pop\n      jump\t// out\n        /* \"bookingalattani.sol\":1468:1846  function lihatAlat(uint _id)... */\n    tag_16:\n        /* \"bookingalattani.sol\":1558:1571  string memory */\n      0x60\n        /* \"bookingalattani.sol\":1586:1590  bool */\n      0x00\n        /* \"bookingalattani.sol\":1605:1612  address */\n      0x00\n        /* \"bookingalattani.sol\":1627:1640  string memory */\n      0x60\n        /* \"bookingalattani.sol\":1668:1684  Alat memory alat */\n      0x00\n        /* \"bookingalattani.sol\":1687:1697  daftarAlat */\n      0x01\n        /* \"bookingalattani.sol\":1698:1701  _id */\n      dup7\n        /* \"bookingalattani.sol\":1687:1702  daftarAlat[_id] */\n      dup2\n      sload\n      dup2\n      lt\n      tag_44\n      jumpi\n      tag_45\n      tag_46\n      jump\t// in\n    tag_45:\n    tag_44:\n      swap1\n      0x00\n      mstore\n      keccak256(0x00, 0x20)\n      swap1\n      0x03\n      mul\n      add\n        /* \"bookingalattani.sol\":1668:1702  Alat memory alat = daftarAlat[_id] */\n      mload(0x40)\n      dup1\n      0x80\n      add\n      0x40\n      mstore\n      swap1\n      dup2\n      0x00\n      dup3\n      add\n      dup1\n      sload\n      tag_48\n      swap1\n      tag_49\n      jump\t// in\n    tag_48:\n      dup1\n      0x1f\n      add\n      0x20\n      dup1\n      swap2\n      div\n      mul\n      0x20\n      add\n      mload(0x40)\n      swap1\n      dup2\n      add\n      0x40\n      mstore\n      dup1\n      swap3\n      swap2\n      swap1\n      dup2\n      dup2\n      mstore\n      0x20\n      add\n      dup3\n      dup1\n      sload\n      tag_50\n      swap1\n      tag_49\n      jump\t// in\n    tag_50:\n      dup1\n      iszero\n      tag_51\n      jumpi\n      dup1\n      0x1f\n      lt\n      tag_52\n      jumpi\n      0x0100\n      dup1\n      dup4\n      sload\n      div\n      mul\n      dup4\n      mstore\n      swap2\n      0x20\n      add\n      swap2\n      jump(tag_51)\n    tag_52:\n      dup3\n      add\n      swap2\n      swap1\n      0x00\n      mstore\n      keccak256(0x00, 0x20)\n      swap1\n    tag_53:\n      dup2\n      sload\n      dup2\n      mstore\n      swap1\n      0x01\n      add\n      swap1\n      0x20\n      add\n      dup1\n      dup4\n      gt\n      tag_53\n      jumpi\n      dup3\n      swap1\n      sub\n      0x1f\n      and\n      dup3\n      add\n      swap2\n    tag_51:\n      pop\n      pop\n      pop\n      pop\n      pop\n      dup2\n      mstore\n      0x20\n      add\n      0x01\n      dup3\n      add\n      0x00\n      swap1\n      sload\n      swap1\n      0x0100\n      exp\n      swap1\n      div\n      0xff\n      and\n      iszero\n      iszero\n      iszero\n      iszero\n      dup2\n      mstore\n      0x20\n      add\n      0x01\n      dup3\n      add\n      0x01\n      swap1\n      sload\n      swap1\n      0x0100\n      exp\n      swap1\n      div\n      0xffffffffffffffffffffffffffffffffffffffff\n      and\n      0xffffffffffffffffffffffffffffffffffffffff\n      and\n      0xffffffffffffffffffffffffffffffffffffffff\n      and\n      dup2\n      mstore\n      0x20\n      add\n      0x02\n      dup3\n      add\n      dup1\n      sload\n      tag_54\n      swap1\n      tag_49\n      jump\t// in\n    tag_54:\n      dup1\n      0x1f\n      add\n      0x20\n      dup1\n      swap2\n      div\n      mul\n      0x20\n      add\n      mload(0x40)\n      swap1\n      dup2\n      add\n      0x40\n      mstore\n      dup1\n      swap3\n      swap2\n      swap1\n      dup2\n      dup2\n      mstore\n      0x20\n      add\n      dup3\n      dup1\n      sload\n      tag_55\n      swap1\n      tag_49\n      jump\t// in\n    tag_55:\n      dup1\n      iszero\n      tag_56\n      jumpi\n      dup1\n      0x1f\n      lt\n      tag_57\n      jumpi\n      0x0100\n      dup1\n      dup4\n      sload\n      div\n      mul\n      dup4\n      mstore\n      swap2\n      0x20\n      add\n      swap2\n      jump(tag_56)\n    tag_57:\n      dup3\n      add\n      swap2\n      swap1\n      0x00\n      mstore\n      keccak256(0x00, 0x20)\n      swap1\n    tag_58:\n      dup2\n      sload\n      dup2\n      mstore\n      swap1\n      0x01\n      add\n      swap1\n      0x20\n      add\n      dup1\n      dup4\n      gt\n      tag_58\n      jumpi\n      dup3\n      swap1\n      sub\n      0x1f\n      and\n      dup3\n      add\n      swap2\n    tag_56:\n      pop\n      pop\n      pop\n      pop\n      pop\n      dup2\n      mstore\n      pop\n      pop\n      swap1\n      pop\n        /* \"bookingalattani.sol\":1737:1741  alat */\n      dup1\n        /* \"bookingalattani.sol\":1737:1746  alat.nama */\n      0x00\n      add\n      mload\n        /* \"bookingalattani.sol\":1761:1765  alat */\n      dup2\n        /* \"bookingalattani.sol\":1761:1774  alat.terpesan */\n      0x20\n      add\n      mload\n        /* \"bookingalattani.sol\":1789:1793  alat */\n      dup3\n        /* \"bookingalattani.sol\":1789:1801  alat.pemesan */\n      0x40\n      add\n      mload\n        /* \"bookingalattani.sol\":1816:1820  alat */\n      dup4\n        /* \"bookingalattani.sol\":1816:1827  alat.jadwal */\n      0x60\n      add\n      mload\n        /* \"bookingalattani.sol\":1715:1838  return (... */\n      swap5\n      pop\n      swap5\n      pop\n      swap5\n      pop\n      swap5\n      pop\n      pop\n        /* \"bookingalattani.sol\":1468:1846  function lihatAlat(uint _id)... */\n      swap2\n      swap4\n      pop\n      swap2\n      swap4\n      jump\t// out\n        /* \"bookingalattani.sol\":306:330  Alat[] public daftarAlat */\n    tag_21:\n      0x01\n      dup2\n      dup2\n      sload\n      dup2\n      lt\n      tag_59\n      jumpi\n      0x00\n      dup1\n      revert\n    tag_59:\n      swap1\n      0x00\n      mstore\n      keccak256(0x00, 0x20)\n      swap1\n      0x03\n      mul\n      add\n      0x00\n      swap2\n      pop\n      swap1\n      pop\n      dup1\n      0x00\n      add\n      dup1\n      sload\n      tag_61\n      swap1\n      tag_49\n      jump\t// in\n    tag_61:\n      dup1\n      0x1f\n      add\n      0x20\n      dup1\n      swap2\n      div\n      mul\n      0x20\n      add\n      mload(0x40)\n      swap1\n      dup2\n      add\n      0x40\n      mstore\n      dup1\n      swap3\n      swap2\n      swap1\n      dup2\n      dup2\n      mstore\n      0x20\n      add\n      dup3\n      dup1\n      sload\n      tag_62\n      swap1\n      tag_49\n      jump\t// in\n    tag_62:\n      dup1\n      iszero\n      tag_63\n      jumpi\n      dup1\n      0x1f\n      lt\n      tag_64\n      jumpi\n      0x0100\n      dup1\n      dup4\n      sload\n      div\n      mul\n      dup4\n      mstore\n      swap2\n      0x20\n      add\n      swap2\n      jump(tag_63)\n    tag_64:\n      dup3\n      add\n      swap2\n      swap1\n      0x00\n      mstore\n      keccak256(0x00, 0x20)\n      swap1\n    tag_65:\n      dup2\n      sload\n      dup2\n      mstore\n      swap1\n      0x01\n      add\n      swap1\n      0x20\n      add\n      dup1\n      dup4\n      gt\n      tag_65\n      jumpi\n      dup3\n      swap1\n      sub\n      0x1f\n      and\n      dup3\n      add\n      swap2\n    tag_63:\n      pop\n      pop\n      pop\n      pop\n      pop\n      swap1\n      dup1\n      0x01\n      add\n      0x00\n      swap1\n      sload\n      swap1\n      0x0100\n      exp\n      swap1\n      div\n      0xff\n      and\n      swap1\n      dup1\n      0x01\n      add\n      0x01\n      swap1\n      sload\n      swap1\n      0x0100\n      exp\n      swap1\n      div\n      0xffffffffffffffffffffffffffffffffffffffff\n      and\n      swap1\n      dup1\n      0x02\n      add\n      dup1\n      sload\n      tag_66\n      swap1\n      tag_49\n      jump\t// in\n    tag_66:\n      dup1\n      0x1f\n      add\n      0x20\n      dup1\n      swap2\n      div\n      mul\n      0x20\n      add\n      mload(0x40)\n      swap1\n      dup2\n      add\n      0x40\n      mstore\n      dup1\n      swap3\n      swap2\n      swap1\n      dup2\n      dup2\n      mstore\n      0x20\n      add\n      dup3\n      dup1\n      sload\n      tag_67\n      swap1\n      tag_49\n      jump\t// in\n    tag_67:\n      dup1\n      iszero\n      tag_68\n      jumpi\n      dup1\n      0x1f\n      lt\n      tag_69\n      jumpi\n      0x0100\n      dup1\n      dup4\n      sload\n      div\n      mul\n      dup4\n      mstore\n      swap2\n      0x20\n      add\n      swap2\n      jump(tag_68)\n    tag_69:\n      dup3\n      add\n      swap2\n      swap1\n      0x00\n      mstore\n      keccak256(0x00, 0x20)\n      swap1\n    tag_70:\n      dup2\n      sload\n      dup2\n      mstore\n      swap1\n      0x01\n      add\n      swap1\n      0x20\n      add\n      dup1\n      dup4\n      gt\n      tag_70\n      jumpi\n      dup3\n      swap1\n      sub\n      0x1f\n      and\n      dup3\n      add\n      swap2\n    tag_68:\n      pop\n      pop\n      pop\n      pop\n      pop\n      swap1\n      pop\n      dup5\n      jump\t// out\n        /* \"bookingalattani.sol\":853:943  function jumlahAlat() public view returns(uint){... */\n    tag_24:\n        /* \"bookingalattani.sol\":895:899  uint */\n      0x00\n        /* \"bookingalattani.sol\":918:928  daftarAlat */\n      0x01\n        /* \"bookingalattani.sol\":918:935  daftarAlat.length */\n      dup1\n      sload\n      swap1\n      pop\n        /* \"bookingalattani.sol\":911:935  return daftarAlat.length */\n      swap1\n      pop\n        /* \"bookingalattani.sol\":853:943  function jumlahAlat() public view returns(uint){... */\n      swap1\n      jump\t// out\n        /* \"bookingalattani.sol\":1040:1373  function bookingAlat(uint _id, string memory _jadwal) public {... */\n    tag_30:\n        /* \"bookingalattani.sol\":1128:1138  daftarAlat */\n      0x01\n        /* \"bookingalattani.sol\":1128:1145  daftarAlat.length */\n      dup1\n      sload\n      swap1\n      pop\n        /* \"bookingalattani.sol\":1122:1125  _id */\n      dup3\n        /* \"bookingalattani.sol\":1122:1145  _id < daftarAlat.length */\n      lt\n        /* \"bookingalattani.sol\":1114:1164  require(_id < daftarAlat.length, \"ID tidak valid\") */\n      tag_73\n      jumpi\n      mload(0x40)\n      0x08c379a000000000000000000000000000000000000000000000000000000000\n      dup2\n      mstore\n      0x04\n      add\n      tag_74\n      swap1\n      tag_75\n      jump\t// in\n    tag_74:\n      mload(0x40)\n      dup1\n      swap2\n      sub\n      swap1\n      revert\n    tag_73:\n        /* \"bookingalattani.sol\":1184:1194  daftarAlat */\n      0x01\n        /* \"bookingalattani.sol\":1195:1198  _id */\n      dup3\n        /* \"bookingalattani.sol\":1184:1199  daftarAlat[_id] */\n      dup2\n      sload\n      dup2\n      lt\n      tag_76\n      jumpi\n      tag_77\n      tag_46\n      jump\t// in\n    tag_77:\n    tag_76:\n      swap1\n      0x00\n      mstore\n      keccak256(0x00, 0x20)\n      swap1\n      0x03\n      mul\n      add\n        /* \"bookingalattani.sol\":1184:1208  daftarAlat[_id].terpesan */\n      0x01\n      add\n      0x00\n      swap1\n      sload\n      swap1\n      0x0100\n      exp\n      swap1\n      div\n      0xff\n      and\n        /* \"bookingalattani.sol\":1183:1208  !daftarAlat[_id].terpesan */\n      iszero\n        /* \"bookingalattani.sol\":1175:1231  require(!daftarAlat[_id].terpesan, \"Alat sudah dipesan\") */\n      tag_79\n      jumpi\n      mload(0x40)\n      0x08c379a000000000000000000000000000000000000000000000000000000000\n      dup2\n      mstore\n      0x04\n      add\n      tag_80\n      swap1\n      tag_81\n      jump\t// in\n    tag_80:\n      mload(0x40)\n      dup1\n      swap2\n      sub\n      swap1\n      revert\n    tag_79:\n        /* \"bookingalattani.sol\":1271:1275  true */\n      0x01\n        /* \"bookingalattani.sol\":1244:1254  daftarAlat */\n      dup1\n        /* \"bookingalattani.sol\":1255:1258  _id */\n      dup4\n        /* \"bookingalattani.sol\":1244:1259  daftarAlat[_id] */\n      dup2\n      sload\n      dup2\n      lt\n      tag_82\n      jumpi\n      tag_83\n      tag_46\n      jump\t// in\n    tag_83:\n    tag_82:\n      swap1\n      0x00\n      mstore\n      keccak256(0x00, 0x20)\n      swap1\n      0x03\n      mul\n      add\n        /* \"bookingalattani.sol\":1244:1268  daftarAlat[_id].terpesan */\n      0x01\n      add\n      0x00\n        /* \"bookingalattani.sol\":1244:1275  daftarAlat[_id].terpesan = true */\n      0x0100\n      exp\n      dup2\n      sload\n      dup2\n      0xff\n      mul\n      not\n      and\n      swap1\n      dup4\n      iszero\n      iszero\n      mul\n      or\n      swap1\n      sstore\n      pop\n        /* \"bookingalattani.sol\":1312:1322  msg.sender */\n      caller\n        /* \"bookingalattani.sol\":1286:1296  daftarAlat */\n      0x01\n        /* \"bookingalattani.sol\":1297:1300  _id */\n      dup4\n        /* \"bookingalattani.sol\":1286:1301  daftarAlat[_id] */\n      dup2\n      sload\n      dup2\n      lt\n      tag_85\n      jumpi\n      tag_86\n      tag_46\n      jump\t// in\n    tag_86:\n    tag_85:\n      swap1\n      0x00\n      mstore\n      keccak256(0x00, 0x20)\n      swap1\n      0x03\n      mul\n      add\n        /* \"bookingalattani.sol\":1286:1309  daftarAlat[_id].pemesan */\n      0x01\n      add\n      0x01\n        /* \"bookingalattani.sol\":1286:1322  daftarAlat[_id].pemesan = msg.sender */\n      0x0100\n      exp\n      dup2\n      sload\n      dup2\n      0xffffffffffffffffffffffffffffffffffffffff\n      mul\n      not\n      and\n      swap1\n      dup4\n      0xffffffffffffffffffffffffffffffffffffffff\n      and\n      mul\n      or\n      swap1\n      sstore\n      pop\n        /* \"bookingalattani.sol\":1358:1365  _jadwal */\n      dup1\n        /* \"bookingalattani.sol\":1333:1343  daftarAlat */\n      0x01\n        /* \"bookingalattani.sol\":1344:1347  _id */\n      dup4\n        /* \"bookingalattani.sol\":1333:1348  daftarAlat[_id] */\n      dup2\n      sload\n      dup2\n      lt\n      tag_88\n      jumpi\n      tag_89\n      tag_46\n      jump\t// in\n    tag_89:\n    tag_88:\n      swap1\n      0x00\n      mstore\n      keccak256(0x00, 0x20)\n      swap1\n      0x03\n      mul\n      add\n        /* \"bookingalattani.sol\":1333:1355  daftarAlat[_id].jadwal */\n      0x02\n      add\n        /* \"bookingalattani.sol\":1333:1365  daftarAlat[_id].jadwal = _jadwal */\n      swap1\n      dup2\n      tag_91\n      swap2\n      swap1\n      tag_41\n      jump\t// in\n    tag_91:\n      pop\n        /* \"bookingalattani.sol\":1040:1373  function bookingAlat(uint _id, string memory _jadwal) public {... */\n      pop\n      pop\n      jump\t// out\n        /* \"bookingalattani.sol\":94:114  address public admin */\n    tag_32:\n      0x00\n      0x00\n      swap1\n      sload\n      swap1\n      0x0100\n      exp\n      swap1\n      div\n      0xffffffffffffffffffffffffffffffffffffffff\n      and\n      dup2\n      jump\t// out\n        /* \"#utility.yul\":7:82   */\n    tag_92:\n        /* \"#utility.yul\":40:46   */\n      0x00\n        /* \"#utility.yul\":73:75   */\n      0x40\n        /* \"#utility.yul\":67:76   */\n      mload\n        /* \"#utility.yul\":57:76   */\n      swap1\n      pop\n        /* \"#utility.yul\":7:82   */\n      swap1\n      jump\t// out\n        /* \"#utility.yul\":88:205   */\n    tag_93:\n        /* \"#utility.yul\":197:198   */\n      0x00\n        /* \"#utility.yul\":194:195   */\n      0x00\n        /* \"#utility.yul\":187:199   */\n      revert\n        /* \"#utility.yul\":211:328   */\n    tag_94:\n        /* \"#utility.yul\":320:321   */\n      0x00\n        /* \"#utility.yul\":317:318   */\n      0x00\n        /* \"#utility.yul\":310:322   */\n      revert\n        /* \"#utility.yul\":334:451   */\n    tag_95:\n        /* \"#utility.yul\":443:444   */\n      0x00\n        /* \"#utility.yul\":440:441   */\n      0x00\n        /* \"#utility.yul\":433:445   */\n      revert\n        /* \"#utility.yul\":457:574   */\n    tag_96:\n        /* \"#utility.yul\":566:567   */\n      0x00\n        /* \"#utility.yul\":563:564   */\n      0x00\n        /* \"#utility.yul\":556:568   */\n      revert\n        /* \"#utility.yul\":580:682   */\n    tag_97:\n        /* \"#utility.yul\":621:627   */\n      0x00\n        /* \"#utility.yul\":672:674   */\n      0x1f\n        /* \"#utility.yul\":668:675   */\n      not\n        /* \"#utility.yul\":663:665   */\n      0x1f\n        /* \"#utility.yul\":656:661   */\n      dup4\n        /* \"#utility.yul\":652:666   */\n      add\n        /* \"#utility.yul\":648:676   */\n      and\n        /* \"#utility.yul\":638:676   */\n      swap1\n      pop\n        /* \"#utility.yul\":580:682   */\n      swap2\n      swap1\n      pop\n      jump\t// out\n        /* \"#utility.yul\":688:868   */\n    tag_98:\n        /* \"#utility.yul\":736:813   */\n      0x4e487b7100000000000000000000000000000000000000000000000000000000\n        /* \"#utility.yul\":733:734   */\n      0x00\n        /* \"#utility.yul\":726:814   */\n      mstore\n        /* \"#utility.yul\":833:837   */\n      0x41\n        /* \"#utility.yul\":830:831   */\n      0x04\n        /* \"#utility.yul\":823:838   */\n      mstore\n        /* \"#utility.yul\":857:861   */\n      0x24\n        /* \"#utility.yul\":854:855   */\n      0x00\n        /* \"#utility.yul\":847:862   */\n      revert\n        /* \"#utility.yul\":874:1155   */\n    tag_99:\n        /* \"#utility.yul\":957:984   */\n      tag_149\n        /* \"#utility.yul\":979:983   */\n      dup3\n        /* \"#utility.yul\":957:984   */\n      tag_97\n      jump\t// in\n    tag_149:\n        /* \"#utility.yul\":949:955   */\n      dup2\n        /* \"#utility.yul\":945:985   */\n      add\n        /* \"#utility.yul\":1087:1093   */\n      dup2\n        /* \"#utility.yul\":1075:1085   */\n      dup2\n        /* \"#utility.yul\":1072:1094   */\n      lt\n        /* \"#utility.yul\":1051:1069   */\n      0xffffffffffffffff\n        /* \"#utility.yul\":1039:1049   */\n      dup3\n        /* \"#utility.yul\":1036:1070   */\n      gt\n        /* \"#utility.yul\":1033:1095   */\n      or\n        /* \"#utility.yul\":1030:1118   */\n      iszero\n      tag_150\n      jumpi\n        /* \"#utility.yul\":1098:1116   */\n      tag_151\n      tag_98\n      jump\t// in\n    tag_151:\n        /* \"#utility.yul\":1030:1118   */\n    tag_150:\n        /* \"#utility.yul\":1138:1148   */\n      dup1\n        /* \"#utility.yul\":1134:1136   */\n      0x40\n        /* \"#utility.yul\":1127:1149   */\n      mstore\n        /* \"#utility.yul\":917:1155   */\n      pop\n        /* \"#utility.yul\":874:1155   */\n      pop\n      pop\n      jump\t// out\n        /* \"#utility.yul\":1161:1290   */\n    tag_100:\n        /* \"#utility.yul\":1195:1201   */\n      0x00\n        /* \"#utility.yul\":1222:1242   */\n      tag_153\n      tag_92\n      jump\t// in\n    tag_153:\n        /* \"#utility.yul\":1212:1242   */\n      swap1\n      pop\n        /* \"#utility.yul\":1251:1284   */\n      tag_154\n        /* \"#utility.yul\":1279:1283   */\n      dup3\n        /* \"#utility.yul\":1271:1277   */\n      dup3\n        /* \"#utility.yul\":1251:1284   */\n      tag_99\n      jump\t// in\n    tag_154:\n        /* \"#utility.yul\":1161:1290   */\n      swap2\n      swap1\n      pop\n      jump\t// out\n        /* \"#utility.yul\":1296:1604   */\n    tag_101:\n        /* \"#utility.yul\":1358:1362   */\n      0x00\n        /* \"#utility.yul\":1448:1466   */\n      0xffffffffffffffff\n        /* \"#utility.yul\":1440:1446   */\n      dup3\n        /* \"#utility.yul\":1437:1467   */\n      gt\n        /* \"#utility.yul\":1434:1490   */\n      iszero\n      tag_156\n      jumpi\n        /* \"#utility.yul\":1470:1488   */\n      tag_157\n      tag_98\n      jump\t// in\n    tag_157:\n        /* \"#utility.yul\":1434:1490   */\n    tag_156:\n        /* \"#utility.yul\":1508:1537   */\n      tag_158\n        /* \"#utility.yul\":1530:1536   */\n      dup3\n        /* \"#utility.yul\":1508:1537   */\n      tag_97\n      jump\t// in\n    tag_158:\n        /* \"#utility.yul\":1500:1537   */\n      swap1\n      pop\n        /* \"#utility.yul\":1592:1596   */\n      0x20\n        /* \"#utility.yul\":1586:1590   */\n      dup2\n        /* \"#utility.yul\":1582:1597   */\n      add\n        /* \"#utility.yul\":1574:1597   */\n      swap1\n      pop\n        /* \"#utility.yul\":1296:1604   */\n      swap2\n      swap1\n      pop\n      jump\t// out\n        /* \"#utility.yul\":1610:1758   */\n    tag_102:\n        /* \"#utility.yul\":1708:1714   */\n      dup3\n        /* \"#utility.yul\":1703:1706   */\n      dup2\n        /* \"#utility.yul\":1698:1701   */\n      dup4\n        /* \"#utility.yul\":1685:1715   */\n      calldatacopy\n        /* \"#utility.yul\":1749:1750   */\n      0x00\n        /* \"#utility.yul\":1740:1746   */\n      dup4\n        /* \"#utility.yul\":1735:1738   */\n      dup4\n        /* \"#utility.yul\":1731:1747   */\n      add\n        /* \"#utility.yul\":1724:1751   */\n      mstore\n        /* \"#utility.yul\":1610:1758   */\n      pop\n      pop\n      pop\n      jump\t// out\n        /* \"#utility.yul\":1764:2189   */\n    tag_103:\n        /* \"#utility.yul\":1842:1847   */\n      0x00\n        /* \"#utility.yul\":1867:1933   */\n      tag_161\n        /* \"#utility.yul\":1883:1932   */\n      tag_162\n        /* \"#utility.yul\":1925:1931   */\n      dup5\n        /* \"#utility.yul\":1883:1932   */\n      tag_101\n      jump\t// in\n    tag_162:\n        /* \"#utility.yul\":1867:1933   */\n      tag_100\n      jump\t// in\n    tag_161:\n        /* \"#utility.yul\":1858:1933   */\n      swap1\n      pop\n        /* \"#utility.yul\":1956:1962   */\n      dup3\n        /* \"#utility.yul\":1949:1954   */\n      dup2\n        /* \"#utility.yul\":1942:1963   */\n      mstore\n        /* \"#utility.yul\":1994:1998   */\n      0x20\n        /* \"#utility.yul\":1987:1992   */\n      dup2\n        /* \"#utility.yul\":1983:1999   */\n      add\n        /* \"#utility.yul\":2032:2035   */\n      dup5\n        /* \"#utility.yul\":2023:2029   */\n      dup5\n        /* \"#utility.yul\":2018:2021   */\n      dup5\n        /* \"#utility.yul\":2014:2030   */\n      add\n        /* \"#utility.yul\":2011:2036   */\n      gt\n        /* \"#utility.yul\":2008:2120   */\n      iszero\n      tag_163\n      jumpi\n        /* \"#utility.yul\":2039:2118   */\n      tag_164\n      tag_96\n      jump\t// in\n    tag_164:\n        /* \"#utility.yul\":2008:2120   */\n    tag_163:\n        /* \"#utility.yul\":2129:2183   */\n      tag_165\n        /* \"#utility.yul\":2176:2182   */\n      dup5\n        /* \"#utility.yul\":2171:2174   */\n      dup3\n        /* \"#utility.yul\":2166:2169   */\n      dup6\n        /* \"#utility.yul\":2129:2183   */\n      tag_102\n      jump\t// in\n    tag_165:\n        /* \"#utility.yul\":1848:2189   */\n      pop\n        /* \"#utility.yul\":1764:2189   */\n      swap4\n      swap3\n      pop\n      pop\n      pop\n      jump\t// out\n        /* \"#utility.yul\":2209:2549   */\n    tag_104:\n        /* \"#utility.yul\":2265:2270   */\n      0x00\n        /* \"#utility.yul\":2314:2317   */\n      dup3\n        /* \"#utility.yul\":2307:2311   */\n      0x1f\n        /* \"#utility.yul\":2299:2305   */\n      dup4\n        /* \"#utility.yul\":2295:2312   */\n      add\n        /* \"#utility.yul\":2291:2318   */\n      slt\n        /* \"#utility.yul\":2281:2403   */\n      tag_167\n      jumpi\n        /* \"#utility.yul\":2322:2401   */\n      tag_168\n      tag_95\n      jump\t// in\n    tag_168:\n        /* \"#utility.yul\":2281:2403   */\n    tag_167:\n        /* \"#utility.yul\":2439:2445   */\n      dup2\n        /* \"#utility.yul\":2426:2446   */\n      calldataload\n        /* \"#utility.yul\":2464:2543   */\n      tag_169\n        /* \"#utility.yul\":2539:2542   */\n      dup5\n        /* \"#utility.yul\":2531:2537   */\n      dup3\n        /* \"#utility.yul\":2524:2528   */\n      0x20\n        /* \"#utility.yul\":2516:2522   */\n      dup7\n        /* \"#utility.yul\":2512:2529   */\n      add\n        /* \"#utility.yul\":2464:2543   */\n      tag_103\n      jump\t// in\n    tag_169:\n        /* \"#utility.yul\":2455:2543   */\n      swap2\n      pop\n        /* \"#utility.yul\":2271:2549   */\n      pop\n        /* \"#utility.yul\":2209:2549   */\n      swap3\n      swap2\n      pop\n      pop\n      jump\t// out\n        /* \"#utility.yul\":2555:3064   */\n    tag_11:\n        /* \"#utility.yul\":2624:2630   */\n      0x00\n        /* \"#utility.yul\":2673:2675   */\n      0x20\n        /* \"#utility.yul\":2661:2670   */\n      dup3\n        /* \"#utility.yul\":2652:2659   */\n      dup5\n        /* \"#utility.yul\":2648:2671   */\n      sub\n        /* \"#utility.yul\":2644:2676   */\n      slt\n        /* \"#utility.yul\":2641:2760   */\n      iszero\n      tag_171\n      jumpi\n        /* \"#utility.yul\":2679:2758   */\n      tag_172\n      tag_93\n      jump\t// in\n    tag_172:\n        /* \"#utility.yul\":2641:2760   */\n    tag_171:\n        /* \"#utility.yul\":2827:2828   */\n      0x00\n        /* \"#utility.yul\":2816:2825   */\n      dup3\n        /* \"#utility.yul\":2812:2829   */\n      add\n        /* \"#utility.yul\":2799:2830   */\n      calldataload\n        /* \"#utility.yul\":2857:2875   */\n      0xffffffffffffffff\n        /* \"#utility.yul\":2849:2855   */\n      dup2\n        /* \"#utility.yul\":2846:2876   */\n      gt\n        /* \"#utility.yul\":2843:2960   */\n      iszero\n      tag_173\n      jumpi\n        /* \"#utility.yul\":2879:2958   */\n      tag_174\n      tag_94\n      jump\t// in\n    tag_174:\n        /* \"#utility.yul\":2843:2960   */\n    tag_173:\n        /* \"#utility.yul\":2984:3047   */\n      tag_175\n        /* \"#utility.yul\":3039:3046   */\n      dup5\n        /* \"#utility.yul\":3030:3036   */\n      dup3\n        /* \"#utility.yul\":3019:3028   */\n      dup6\n        /* \"#utility.yul\":3015:3037   */\n      add\n        /* \"#utility.yul\":2984:3047   */\n      tag_104\n      jump\t// in\n    tag_175:\n        /* \"#utility.yul\":2974:3047   */\n      swap2\n      pop\n        /* \"#utility.yul\":2770:3057   */\n      pop\n        /* \"#utility.yul\":2555:3064   */\n      swap3\n      swap2\n      pop\n      pop\n      jump\t// out\n        /* \"#utility.yul\":3070:3147   */\n    tag_105:\n        /* \"#utility.yul\":3107:3114   */\n      0x00\n        /* \"#utility.yul\":3136:3141   */\n      dup2\n        /* \"#utility.yul\":3125:3141   */\n      swap1\n      pop\n        /* \"#utility.yul\":3070:3147   */\n      swap2\n      swap1\n      pop\n      jump\t// out\n        /* \"#utility.yul\":3153:3275   */\n    tag_106:\n        /* \"#utility.yul\":3226:3250   */\n      tag_178\n        /* \"#utility.yul\":3244:3249   */\n      dup2\n        /* \"#utility.yul\":3226:3250   */\n      tag_105\n      jump\t// in\n    tag_178:\n        /* \"#utility.yul\":3219:3224   */\n      dup2\n        /* \"#utility.yul\":3216:3251   */\n      eq\n        /* \"#utility.yul\":3206:3269   */\n      tag_179\n      jumpi\n        /* \"#utility.yul\":3265:3266   */\n      0x00\n        /* \"#utility.yul\":3262:3263   */\n      0x00\n        /* \"#utility.yul\":3255:3267   */\n      revert\n        /* \"#utility.yul\":3206:3269   */\n    tag_179:\n        /* \"#utility.yul\":3153:3275   */\n      pop\n      jump\t// out\n        /* \"#utility.yul\":3281:3420   */\n    tag_107:\n        /* \"#utility.yul\":3327:3332   */\n      0x00\n        /* \"#utility.yul\":3365:3371   */\n      dup2\n        /* \"#utility.yul\":3352:3372   */\n      calldataload\n        /* \"#utility.yul\":3343:3372   */\n      swap1\n      pop\n        /* \"#utility.yul\":3381:3414   */\n      tag_181\n        /* \"#utility.yul\":3408:3413   */\n      dup2\n        /* \"#utility.yul\":3381:3414   */\n      tag_106\n      jump\t// in\n    tag_181:\n        /* \"#utility.yul\":3281:3420   */\n      swap3\n      swap2\n      pop\n      pop\n      jump\t// out\n        /* \"#utility.yul\":3426:3755   */\n    tag_15:\n        /* \"#utility.yul\":3485:3491   */\n      0x00\n        /* \"#utility.yul\":3534:3536   */\n      0x20\n        /* \"#utility.yul\":3522:3531   */\n      dup3\n        /* \"#utility.yul\":3513:3520   */\n      dup5\n        /* \"#utility.yul\":3509:3532   */\n      sub\n        /* \"#utility.yul\":3505:3537   */\n      slt\n        /* \"#utility.yul\":3502:3621   */\n      iszero\n      tag_183\n      jumpi\n        /* \"#utility.yul\":3540:3619   */\n      tag_184\n      tag_93\n      jump\t// in\n    tag_184:\n        /* \"#utility.yul\":3502:3621   */\n    tag_183:\n        /* \"#utility.yul\":3660:3661   */\n      0x00\n        /* \"#utility.yul\":3685:3738   */\n      tag_185\n        /* \"#utility.yul\":3730:3737   */\n      dup5\n        /* \"#utility.yul\":3721:3727   */\n      dup3\n        /* \"#utility.yul\":3710:3719   */\n      dup6\n        /* \"#utility.yul\":3706:3728   */\n      add\n        /* \"#utility.yul\":3685:3738   */\n      tag_107\n      jump\t// in\n    tag_185:\n        /* \"#utility.yul\":3675:3738   */\n      swap2\n      pop\n        /* \"#utility.yul\":3631:3748   */\n      pop\n        /* \"#utility.yul\":3426:3755   */\n      swap3\n      swap2\n      pop\n      pop\n      jump\t// out\n        /* \"#utility.yul\":3761:3860   */\n    tag_108:\n        /* \"#utility.yul\":3813:3819   */\n      0x00\n        /* \"#utility.yul\":3847:3852   */\n      dup2\n        /* \"#utility.yul\":3841:3853   */\n      mload\n        /* \"#utility.yul\":3831:3853   */\n      swap1\n      pop\n        /* \"#utility.yul\":3761:3860   */\n      swap2\n      swap1\n      pop\n      jump\t// out\n        /* \"#utility.yul\":3866:4035   */\n    tag_109:\n        /* \"#utility.yul\":3950:3961   */\n      0x00\n        /* \"#utility.yul\":3984:3990   */\n      dup3\n        /* \"#utility.yul\":3979:3982   */\n      dup3\n        /* \"#utility.yul\":3972:3991   */\n      mstore\n        /* \"#utility.yul\":4024:4028   */\n      0x20\n        /* \"#utility.yul\":4019:4022   */\n      dup3\n        /* \"#utility.yul\":4015:4029   */\n      add\n        /* \"#utility.yul\":4000:4029   */\n      swap1\n      pop\n        /* \"#utility.yul\":3866:4035   */\n      swap3\n      swap2\n      pop\n      pop\n      jump\t// out\n        /* \"#utility.yul\":4041:4180   */\n    tag_110:\n        /* \"#utility.yul\":4130:4136   */\n      dup3\n        /* \"#utility.yul\":4125:4128   */\n      dup2\n        /* \"#utility.yul\":4120:4123   */\n      dup4\n        /* \"#utility.yul\":4114:4137   */\n      mcopy\n        /* \"#utility.yul\":4171:4172   */\n      0x00\n        /* \"#utility.yul\":4162:4168   */\n      dup4\n        /* \"#utility.yul\":4157:4160   */\n      dup4\n        /* \"#utility.yul\":4153:4169   */\n      add\n        /* \"#utility.yul\":4146:4173   */\n      mstore\n        /* \"#utility.yul\":4041:4180   */\n      pop\n      pop\n      pop\n      jump\t// out\n        /* \"#utility.yul\":4186:4563   */\n    tag_111:\n        /* \"#utility.yul\":4274:4277   */\n      0x00\n        /* \"#utility.yul\":4302:4341   */\n      tag_190\n        /* \"#utility.yul\":4335:4340   */\n      dup3\n        /* \"#utility.yul\":4302:4341   */\n      tag_108\n      jump\t// in\n    tag_190:\n        /* \"#utility.yul\":4357:4428   */\n      tag_191\n        /* \"#utility.yul\":4421:4427   */\n      dup2\n        /* \"#utility.yul\":4416:4419   */\n      dup6\n        /* \"#utility.yul\":4357:4428   */\n      tag_109\n      jump\t// in\n    tag_191:\n        /* \"#utility.yul\":4350:4428   */\n      swap4\n      pop\n        /* \"#utility.yul\":4437:4502   */\n      tag_192\n        /* \"#utility.yul\":4495:4501   */\n      dup2\n        /* \"#utility.yul\":4490:4493   */\n      dup6\n        /* \"#utility.yul\":4483:4487   */\n      0x20\n        /* \"#utility.yul\":4476:4481   */\n      dup7\n        /* \"#utility.yul\":4472:4488   */\n      add\n        /* \"#utility.yul\":4437:4502   */\n      tag_110\n      jump\t// in\n    tag_192:\n        /* \"#utility.yul\":4527:4556   */\n      tag_193\n        /* \"#utility.yul\":4549:4555   */\n      dup2\n        /* \"#utility.yul\":4527:4556   */\n      tag_97\n      jump\t// in\n    tag_193:\n        /* \"#utility.yul\":4522:4525   */\n      dup5\n        /* \"#utility.yul\":4518:4557   */\n      add\n        /* \"#utility.yul\":4511:4557   */\n      swap2\n      pop\n        /* \"#utility.yul\":4278:4563   */\n      pop\n        /* \"#utility.yul\":4186:4563   */\n      swap3\n      swap2\n      pop\n      pop\n      jump\t// out\n        /* \"#utility.yul\":4569:4659   */\n    tag_112:\n        /* \"#utility.yul\":4603:4610   */\n      0x00\n        /* \"#utility.yul\":4646:4651   */\n      dup2\n        /* \"#utility.yul\":4639:4652   */\n      iszero\n        /* \"#utility.yul\":4632:4653   */\n      iszero\n        /* \"#utility.yul\":4621:4653   */\n      swap1\n      pop\n        /* \"#utility.yul\":4569:4659   */\n      swap2\n      swap1\n      pop\n      jump\t// out\n        /* \"#utility.yul\":4665:4774   */\n    tag_113:\n        /* \"#utility.yul\":4746:4767   */\n      tag_196\n        /* \"#utility.yul\":4761:4766   */\n      dup2\n        /* \"#utility.yul\":4746:4767   */\n      tag_112\n      jump\t// in\n    tag_196:\n        /* \"#utility.yul\":4741:4744   */\n      dup3\n        /* \"#utility.yul\":4734:4768   */\n      mstore\n        /* \"#utility.yul\":4665:4774   */\n      pop\n      pop\n      jump\t// out\n        /* \"#utility.yul\":4780:4906   */\n    tag_114:\n        /* \"#utility.yul\":4817:4824   */\n      0x00\n        /* \"#utility.yul\":4857:4899   */\n      0xffffffffffffffffffffffffffffffffffffffff\n        /* \"#utility.yul\":4850:4855   */\n      dup3\n        /* \"#utility.yul\":4846:4900   */\n      and\n        /* \"#utility.yul\":4835:4900   */\n      swap1\n      pop\n        /* \"#utility.yul\":4780:4906   */\n      swap2\n      swap1\n      pop\n      jump\t// out\n        /* \"#utility.yul\":4912:5008   */\n    tag_115:\n        /* \"#utility.yul\":4949:4956   */\n      0x00\n        /* \"#utility.yul\":4978:5002   */\n      tag_199\n        /* \"#utility.yul\":4996:5001   */\n      dup3\n        /* \"#utility.yul\":4978:5002   */\n      tag_114\n      jump\t// in\n    tag_199:\n        /* \"#utility.yul\":4967:5002   */\n      swap1\n      pop\n        /* \"#utility.yul\":4912:5008   */\n      swap2\n      swap1\n      pop\n      jump\t// out\n        /* \"#utility.yul\":5014:5132   */\n    tag_116:\n        /* \"#utility.yul\":5101:5125   */\n      tag_201\n        /* \"#utility.yul\":5119:5124   */\n      dup2\n        /* \"#utility.yul\":5101:5125   */\n      tag_115\n      jump\t// in\n    tag_201:\n        /* \"#utility.yul\":5096:5099   */\n      dup3\n        /* \"#utility.yul\":5089:5126   */\n      mstore\n        /* \"#utility.yul\":5014:5132   */\n      pop\n      pop\n      jump\t// out\n        /* \"#utility.yul\":5138:5861   */\n    tag_18:\n        /* \"#utility.yul\":5349:5353   */\n      0x00\n        /* \"#utility.yul\":5387:5390   */\n      0x80\n        /* \"#utility.yul\":5376:5385   */\n      dup3\n        /* \"#utility.yul\":5372:5391   */\n      add\n        /* \"#utility.yul\":5364:5391   */\n      swap1\n      pop\n        /* \"#utility.yul\":5437:5446   */\n      dup2\n        /* \"#utility.yul\":5431:5435   */\n      dup2\n        /* \"#utility.yul\":5427:5447   */\n      sub\n        /* \"#utility.yul\":5423:5424   */\n      0x00\n        /* \"#utility.yul\":5412:5421   */\n      dup4\n        /* \"#utility.yul\":5408:5425   */\n      add\n        /* \"#utility.yul\":5401:5448   */\n      mstore\n        /* \"#utility.yul\":5465:5543   */\n      tag_203\n        /* \"#utility.yul\":5538:5542   */\n      dup2\n        /* \"#utility.yul\":5529:5535   */\n      dup8\n        /* \"#utility.yul\":5465:5543   */\n      tag_111\n      jump\t// in\n    tag_203:\n        /* \"#utility.yul\":5457:5543   */\n      swap1\n      pop\n        /* \"#utility.yul\":5553:5619   */\n      tag_204\n        /* \"#utility.yul\":5615:5617   */\n      0x20\n        /* \"#utility.yul\":5604:5613   */\n      dup4\n        /* \"#utility.yul\":5600:5618   */\n      add\n        /* \"#utility.yul\":5591:5597   */\n      dup7\n        /* \"#utility.yul\":5553:5619   */\n      tag_113\n      jump\t// in\n    tag_204:\n        /* \"#utility.yul\":5629:5701   */\n      tag_205\n        /* \"#utility.yul\":5697:5699   */\n      0x40\n        /* \"#utility.yul\":5686:5695   */\n      dup4\n        /* \"#utility.yul\":5682:5700   */\n      add\n        /* \"#utility.yul\":5673:5679   */\n      dup6\n        /* \"#utility.yul\":5629:5701   */\n      tag_116\n      jump\t// in\n    tag_205:\n        /* \"#utility.yul\":5748:5757   */\n      dup2\n        /* \"#utility.yul\":5742:5746   */\n      dup2\n        /* \"#utility.yul\":5738:5758   */\n      sub\n        /* \"#utility.yul\":5733:5735   */\n      0x60\n        /* \"#utility.yul\":5722:5731   */\n      dup4\n        /* \"#utility.yul\":5718:5736   */\n      add\n        /* \"#utility.yul\":5711:5759   */\n      mstore\n        /* \"#utility.yul\":5776:5854   */\n      tag_206\n        /* \"#utility.yul\":5849:5853   */\n      dup2\n        /* \"#utility.yul\":5840:5846   */\n      dup5\n        /* \"#utility.yul\":5776:5854   */\n      tag_111\n      jump\t// in\n    tag_206:\n        /* \"#utility.yul\":5768:5854   */\n      swap1\n      pop\n        /* \"#utility.yul\":5138:5861   */\n      swap6\n      swap5\n      pop\n      pop\n      pop\n      pop\n      pop\n      jump\t// out\n        /* \"#utility.yul\":5867:5985   */\n    tag_117:\n        /* \"#utility.yul\":5954:5978   */\n      tag_208\n        /* \"#utility.yul\":5972:5977   */\n      dup2\n        /* \"#utility.yul\":5954:5978   */\n      tag_105\n      jump\t// in\n    tag_208:\n        /* \"#utility.yul\":5949:5952   */\n      dup3\n        /* \"#utility.yul\":5942:5979   */\n      mstore\n        /* \"#utility.yul\":5867:5985   */\n      pop\n      pop\n      jump\t// out\n        /* \"#utility.yul\":5991:6213   */\n    tag_26:\n        /* \"#utility.yul\":6084:6088   */\n      0x00\n        /* \"#utility.yul\":6122:6124   */\n      0x20\n        /* \"#utility.yul\":6111:6120   */\n      dup3\n        /* \"#utility.yul\":6107:6125   */\n      add\n        /* \"#utility.yul\":6099:6125   */\n      swap1\n      pop\n        /* \"#utility.yul\":6135:6206   */\n      tag_210\n        /* \"#utility.yul\":6203:6204   */\n      0x00\n        /* \"#utility.yul\":6192:6201   */\n      dup4\n        /* \"#utility.yul\":6188:6205   */\n      add\n        /* \"#utility.yul\":6179:6185   */\n      dup5\n        /* \"#utility.yul\":6135:6206   */\n      tag_117\n      jump\t// in\n    tag_210:\n        /* \"#utility.yul\":5991:6213   */\n      swap3\n      swap2\n      pop\n      pop\n      jump\t// out\n        /* \"#utility.yul\":6219:6873   */\n    tag_29:\n        /* \"#utility.yul\":6297:6303   */\n      0x00\n        /* \"#utility.yul\":6305:6311   */\n      0x00\n        /* \"#utility.yul\":6354:6356   */\n      0x40\n        /* \"#utility.yul\":6342:6351   */\n      dup4\n        /* \"#utility.yul\":6333:6340   */\n      dup6\n        /* \"#utility.yul\":6329:6352   */\n      sub\n        /* \"#utility.yul\":6325:6357   */\n      slt\n        /* \"#utility.yul\":6322:6441   */\n      iszero\n      tag_212\n      jumpi\n        /* \"#utility.yul\":6360:6439   */\n      tag_213\n      tag_93\n      jump\t// in\n    tag_213:\n        /* \"#utility.yul\":6322:6441   */\n    tag_212:\n        /* \"#utility.yul\":6480:6481   */\n      0x00\n        /* \"#utility.yul\":6505:6558   */\n      tag_214\n        /* \"#utility.yul\":6550:6557   */\n      dup6\n        /* \"#utility.yul\":6541:6547   */\n      dup3\n        /* \"#utility.yul\":6530:6539   */\n      dup7\n        /* \"#utility.yul\":6526:6548   */\n      add\n        /* \"#utility.yul\":6505:6558   */\n      tag_107\n      jump\t// in\n    tag_214:\n        /* \"#utility.yul\":6495:6558   */\n      swap3\n      pop\n        /* \"#utility.yul\":6451:6568   */\n      pop\n        /* \"#utility.yul\":6635:6637   */\n      0x20\n        /* \"#utility.yul\":6624:6633   */\n      dup4\n        /* \"#utility.yul\":6620:6638   */\n      add\n        /* \"#utility.yul\":6607:6639   */\n      calldataload\n        /* \"#utility.yul\":6666:6684   */\n      0xffffffffffffffff\n        /* \"#utility.yul\":6658:6664   */\n      dup2\n        /* \"#utility.yul\":6655:6685   */\n      gt\n        /* \"#utility.yul\":6652:6769   */\n      iszero\n      tag_215\n      jumpi\n        /* \"#utility.yul\":6688:6767   */\n      tag_216\n      tag_94\n      jump\t// in\n    tag_216:\n        /* \"#utility.yul\":6652:6769   */\n    tag_215:\n        /* \"#utility.yul\":6793:6856   */\n      tag_217\n        /* \"#utility.yul\":6848:6855   */\n      dup6\n        /* \"#utility.yul\":6839:6845   */\n      dup3\n        /* \"#utility.yul\":6828:6837   */\n      dup7\n        /* \"#utility.yul\":6824:6846   */\n      add\n        /* \"#utility.yul\":6793:6856   */\n      tag_104\n      jump\t// in\n    tag_217:\n        /* \"#utility.yul\":6783:6856   */\n      swap2\n      pop\n        /* \"#utility.yul\":6578:6866   */\n      pop\n        /* \"#utility.yul\":6219:6873   */\n      swap3\n      pop\n      swap3\n      swap1\n      pop\n      jump\t// out\n        /* \"#utility.yul\":6879:7101   */\n    tag_34:\n        /* \"#utility.yul\":6972:6976   */\n      0x00\n        /* \"#utility.yul\":7010:7012   */\n      0x20\n        /* \"#utility.yul\":6999:7008   */\n      dup3\n        /* \"#utility.yul\":6995:7013   */\n      add\n        /* \"#utility.yul\":6987:7013   */\n      swap1\n      pop\n        /* \"#utility.yul\":7023:7094   */\n      tag_219\n        /* \"#utility.yul\":7091:7092   */\n      0x00\n        /* \"#utility.yul\":7080:7089   */\n      dup4\n        /* \"#utility.yul\":7076:7093   */\n      add\n        /* \"#utility.yul\":7067:7073   */\n      dup5\n        /* \"#utility.yul\":7023:7094   */\n      tag_116\n      jump\t// in\n    tag_219:\n        /* \"#utility.yul\":6879:7101   */\n      swap3\n      swap2\n      pop\n      pop\n      jump\t// out\n        /* \"#utility.yul\":7107:7268   */\n    tag_118:\n        /* \"#utility.yul\":7247:7260   */\n      0x48616e79612061646d696e000000000000000000000000000000000000000000\n        /* \"#utility.yul\":7243:7244   */\n      0x00\n        /* \"#utility.yul\":7235:7241   */\n      dup3\n        /* \"#utility.yul\":7231:7245   */\n      add\n        /* \"#utility.yul\":7224:7261   */\n      mstore\n        /* \"#utility.yul\":7107:7268   */\n      pop\n      jump\t// out\n        /* \"#utility.yul\":7274:7640   */\n    tag_119:\n        /* \"#utility.yul\":7416:7419   */\n      0x00\n        /* \"#utility.yul\":7437:7504   */\n      tag_222\n        /* \"#utility.yul\":7501:7503   */\n      0x0b\n        /* \"#utility.yul\":7496:7499   */\n      dup4\n        /* \"#utility.yul\":7437:7504   */\n      tag_109\n      jump\t// in\n    tag_222:\n        /* \"#utility.yul\":7430:7504   */\n      swap2\n      pop\n        /* \"#utility.yul\":7513:7606   */\n      tag_223\n        /* \"#utility.yul\":7602:7605   */\n      dup3\n        /* \"#utility.yul\":7513:7606   */\n      tag_118\n      jump\t// in\n    tag_223:\n        /* \"#utility.yul\":7631:7633   */\n      0x20\n        /* \"#utility.yul\":7626:7629   */\n      dup3\n        /* \"#utility.yul\":7622:7634   */\n      add\n        /* \"#utility.yul\":7615:7634   */\n      swap1\n      pop\n        /* \"#utility.yul\":7274:7640   */\n      swap2\n      swap1\n      pop\n      jump\t// out\n        /* \"#utility.yul\":7646:8065   */\n    tag_38:\n        /* \"#utility.yul\":7812:7816   */\n      0x00\n        /* \"#utility.yul\":7850:7852   */\n      0x20\n        /* \"#utility.yul\":7839:7848   */\n      dup3\n        /* \"#utility.yul\":7835:7853   */\n      add\n        /* \"#utility.yul\":7827:7853   */\n      swap1\n      pop\n        /* \"#utility.yul\":7899:7908   */\n      dup2\n        /* \"#utility.yul\":7893:7897   */\n      dup2\n        /* \"#utility.yul\":7889:7909   */\n      sub\n        /* \"#utility.yul\":7885:7886   */\n      0x00\n        /* \"#utility.yul\":7874:7883   */\n      dup4\n        /* \"#utility.yul\":7870:7887   */\n      add\n        /* \"#utility.yul\":7863:7910   */\n      mstore\n        /* \"#utility.yul\":7927:8058   */\n      tag_225\n        /* \"#utility.yul\":8053:8057   */\n      dup2\n        /* \"#utility.yul\":7927:8058   */\n      tag_119\n      jump\t// in\n    tag_225:\n        /* \"#utility.yul\":7919:8058   */\n      swap1\n      pop\n        /* \"#utility.yul\":7646:8065   */\n      swap2\n      swap1\n      pop\n      jump\t// out\n        /* \"#utility.yul\":8071:8251   */\n    tag_120:\n        /* \"#utility.yul\":8119:8196   */\n      0x4e487b7100000000000000000000000000000000000000000000000000000000\n        /* \"#utility.yul\":8116:8117   */\n      0x00\n        /* \"#utility.yul\":8109:8197   */\n      mstore\n        /* \"#utility.yul\":8216:8220   */\n      0x22\n        /* \"#utility.yul\":8213:8214   */\n      0x04\n        /* \"#utility.yul\":8206:8221   */\n      mstore\n        /* \"#utility.yul\":8240:8244   */\n      0x24\n        /* \"#utility.yul\":8237:8238   */\n      0x00\n        /* \"#utility.yul\":8230:8245   */\n      revert\n        /* \"#utility.yul\":8257:8577   */\n    tag_49:\n        /* \"#utility.yul\":8301:8307   */\n      0x00\n        /* \"#utility.yul\":8338:8339   */\n      0x02\n        /* \"#utility.yul\":8332:8336   */\n      dup3\n        /* \"#utility.yul\":8328:8340   */\n      div\n        /* \"#utility.yul\":8318:8340   */\n      swap1\n      pop\n        /* \"#utility.yul\":8385:8386   */\n      0x01\n        /* \"#utility.yul\":8379:8383   */\n      dup3\n        /* \"#utility.yul\":8375:8387   */\n      and\n        /* \"#utility.yul\":8406:8424   */\n      dup1\n        /* \"#utility.yul\":8396:8477   */\n      tag_228\n      jumpi\n        /* \"#utility.yul\":8462:8466   */\n      0x7f\n        /* \"#utility.yul\":8454:8460   */\n      dup3\n        /* \"#utility.yul\":8450:8467   */\n      and\n        /* \"#utility.yul\":8440:8467   */\n      swap2\n      pop\n        /* \"#utility.yul\":8396:8477   */\n    tag_228:\n        /* \"#utility.yul\":8524:8526   */\n      0x20\n        /* \"#utility.yul\":8516:8522   */\n      dup3\n        /* \"#utility.yul\":8513:8527   */\n      lt\n        /* \"#utility.yul\":8493:8511   */\n      dup2\n        /* \"#utility.yul\":8490:8528   */\n      sub\n        /* \"#utility.yul\":8487:8571   */\n      tag_229\n      jumpi\n        /* \"#utility.yul\":8543:8561   */\n      tag_230\n      tag_120\n      jump\t// in\n    tag_230:\n        /* \"#utility.yul\":8487:8571   */\n    tag_229:\n        /* \"#utility.yul\":8308:8577   */\n      pop\n        /* \"#utility.yul\":8257:8577   */\n      swap2\n      swap1\n      pop\n      jump\t// out\n        /* \"#utility.yul\":8583:8724   */\n    tag_121:\n        /* \"#utility.yul\":8632:8636   */\n      0x00\n        /* \"#utility.yul\":8655:8658   */\n      dup2\n        /* \"#utility.yul\":8647:8658   */\n      swap1\n      pop\n        /* \"#utility.yul\":8678:8681   */\n      dup2\n        /* \"#utility.yul\":8675:8676   */\n      0x00\n        /* \"#utility.yul\":8668:8682   */\n      mstore\n        /* \"#utility.yul\":8712:8716   */\n      0x20\n        /* \"#utility.yul\":8709:8710   */\n      0x00\n        /* \"#utility.yul\":8699:8717   */\n      keccak256\n        /* \"#utility.yul\":8691:8717   */\n      swap1\n      pop\n        /* \"#utility.yul\":8583:8724   */\n      swap2\n      swap1\n      pop\n      jump\t// out\n        /* \"#utility.yul\":8730:8823   */\n    tag_122:\n        /* \"#utility.yul\":8767:8773   */\n      0x00\n        /* \"#utility.yul\":8814:8816   */\n      0x20\n        /* \"#utility.yul\":8809:8811   */\n      0x1f\n        /* \"#utility.yul\":8802:8807   */\n      dup4\n        /* \"#utility.yul\":8798:8812   */\n      add\n        /* \"#utility.yul\":8794:8817   */\n      div\n        /* \"#utility.yul\":8784:8817   */\n      swap1\n      pop\n        /* \"#utility.yul\":8730:8823   */\n      swap2\n      swap1\n      pop\n      jump\t// out\n        /* \"#utility.yul\":8829:8936   */\n    tag_123:\n        /* \"#utility.yul\":8873:8881   */\n      0x00\n        /* \"#utility.yul\":8923:8928   */\n      dup3\n        /* \"#utility.yul\":8917:8921   */\n      dup3\n        /* \"#utility.yul\":8913:8929   */\n      shl\n        /* \"#utility.yul\":8892:8929   */\n      swap1\n      pop\n        /* \"#utility.yul\":8829:8936   */\n      swap3\n      swap2\n      pop\n      pop\n      jump\t// out\n        /* \"#utility.yul\":8942:9335   */\n    tag_124:\n        /* \"#utility.yul\":9011:9017   */\n      0x00\n        /* \"#utility.yul\":9061:9062   */\n      0x08\n        /* \"#utility.yul\":9049:9059   */\n      dup4\n        /* \"#utility.yul\":9045:9063   */\n      mul\n        /* \"#utility.yul\":9084:9181   */\n      tag_235\n        /* \"#utility.yul\":9114:9180   */\n      0xffffffffffffffffffffffffffffffffffffffffffffffffffffffffffffffff\n        /* \"#utility.yul\":9103:9112   */\n      dup3\n        /* \"#utility.yul\":9084:9181   */\n      tag_123\n      jump\t// in\n    tag_235:\n        /* \"#utility.yul\":9202:9241   */\n      tag_236\n        /* \"#utility.yul\":9232:9240   */\n      dup7\n        /* \"#utility.yul\":9221:9230   */\n      dup4\n        /* \"#utility.yul\":9202:9241   */\n      tag_123\n      jump\t// in\n    tag_236:\n        /* \"#utility.yul\":9190:9241   */\n      swap6\n      pop\n        /* \"#utility.yul\":9274:9278   */\n      dup1\n        /* \"#utility.yul\":9270:9279   */\n      not\n        /* \"#utility.yul\":9263:9268   */\n      dup5\n        /* \"#utility.yul\":9259:9280   */\n      and\n        /* \"#utility.yul\":9250:9280   */\n      swap4\n      pop\n        /* \"#utility.yul\":9323:9327   */\n      dup1\n        /* \"#utility.yul\":9313:9321   */\n      dup7\n        /* \"#utility.yul\":9309:9328   */\n      and\n        /* \"#utility.yul\":9302:9307   */\n      dup5\n        /* \"#utility.yul\":9299:9329   */\n      or\n        /* \"#utility.yul\":9289:9329   */\n      swap3\n      pop\n        /* \"#utility.yul\":9018:9335   */\n      pop\n      pop\n        /* \"#utility.yul\":8942:9335   */\n      swap4\n      swap3\n      pop\n      pop\n      pop\n      jump\t// out\n        /* \"#utility.yul\":9341:9401   */\n    tag_125:\n        /* \"#utility.yul\":9369:9372   */\n      0x00\n        /* \"#utility.yul\":9390:9395   */\n      dup2\n        /* \"#utility.yul\":9383:9395   */\n      swap1\n      pop\n        /* \"#utility.yul\":9341:9401   */\n      swap2\n      swap1\n      pop\n      jump\t// out\n        /* \"#utility.yul\":9407:9549   */\n    tag_126:\n        /* \"#utility.yul\":9457:9466   */\n      0x00\n        /* \"#utility.yul\":9490:9543   */\n      tag_239\n        /* \"#utility.yul\":9508:9542   */\n      tag_240\n        /* \"#utility.yul\":9517:9541   */\n      tag_241\n        /* \"#utility.yul\":9535:9540   */\n      dup5\n        /* \"#utility.yul\":9517:9541   */\n      tag_105\n      jump\t// in\n    tag_241:\n        /* \"#utility.yul\":9508:9542   */\n      tag_125\n      jump\t// in\n    tag_240:\n        /* \"#utility.yul\":9490:9543   */\n      tag_105\n      jump\t// in\n    tag_239:\n        /* \"#utility.yul\":9477:9543   */\n      swap1\n      pop\n        /* \"#utility.yul\":9407:9549   */\n      swap2\n      swap1\n      pop\n      jump\t// out\n        /* \"#utility.yul\":9555:9630   */\n    tag_127:\n        /* \"#utility.yul\":9598:9601   */\n      0x00\n        /* \"#utility.yul\":9619:9624   */\n      dup2\n        /* \"#utility.yul\":9612:9624   */\n      swap1\n      pop\n        /* \"#utility.yul\":9555:9630   */\n      swap2\n      swap1\n      pop\n      jump\t// out\n        /* \"#utility.yul\":9636:9905   */\n    tag_128:\n        /* \"#utility.yul\":9746:9785   */\n      tag_244\n        /* \"#utility.yul\":9777:9784   */\n      dup4\n        /* \"#utility.yul\":9746:9785   */\n      tag_126\n      jump\t// in\n    tag_244:\n        /* \"#utility.yul\":9807:9898   */\n      tag_245\n        /* \"#utility.yul\":9856:9897   */\n      tag_246\n        /* \"#utility.yul\":9880:9896   */\n      dup3\n        /* \"#utility.yul\":9856:9897   */\n      tag_127\n      jump\t// in\n    tag_246:\n        /* \"#utility.yul\":9848:9854   */\n      dup5\n        /* \"#utility.yul\":9841:9845   */\n      dup5\n        /* \"#utility.yul\":9835:9846   */\n      sload\n        /* \"#utility.yul\":9807:9898   */\n      tag_124\n      jump\t// in\n    tag_245:\n        /* \"#utility.yul\":9801:9805   */\n      dup3\n        /* \"#utility.yul\":9794:9899   */\n      sstore\n        /* \"#utility.yul\":9712:9905   */\n      pop\n        /* \"#utility.yul\":9636:9905   */\n      pop\n      pop\n      pop\n      jump\t// out\n        /* \"#utility.yul\":9911:9984   */\n    tag_129:\n        /* \"#utility.yul\":9956:9959   */\n      0x00\n        /* \"#utility.yul\":9977:9978   */\n      0x00\n        /* \"#utility.yul\":9970:9978   */\n      swap1\n      pop\n        /* \"#utility.yul\":9911:9984   */\n      swap1\n      jump\t// out\n        /* \"#utility.yul\":9990:10179   */\n    tag_130:\n        /* \"#utility.yul\":10067:10099   */\n      tag_249\n      tag_129\n      jump\t// in\n    tag_249:\n        /* \"#utility.yul\":10108:10173   */\n      tag_250\n        /* \"#utility.yul\":10166:10172   */\n      dup2\n        /* \"#utility.yul\":10158:10164   */\n      dup5\n        /* \"#utility.yul\":10152:10156   */\n      dup5\n        /* \"#utility.yul\":10108:10173   */\n      tag_128\n      jump\t// in\n    tag_250:\n        /* \"#utility.yul\":10043:10179   */\n      pop\n        /* \"#utility.yul\":9990:10179   */\n      pop\n      pop\n      jump\t// out\n        /* \"#utility.yul\":10185:10399   */\n    tag_131:\n        /* \"#utility.yul\":10270:10271   */\n      0x00\n        /* \"#utility.yul\":10255:10393   */\n    tag_252:\n        /* \"#utility.yul\":10280:10289   */\n      dup3\n        /* \"#utility.yul\":10277:10278   */\n      dup2\n        /* \"#utility.yul\":10274:10290   */\n      lt\n        /* \"#utility.yul\":10255:10393   */\n      iszero\n      tag_254\n      jumpi\n        /* \"#utility.yul\":10332:10383   */\n      tag_255\n        /* \"#utility.yul\":10381:10382   */\n      0x00\n        /* \"#utility.yul\":10377:10378   */\n      dup3\n        /* \"#utility.yul\":10366:10375   */\n      dup5\n        /* \"#utility.yul\":10362:10379   */\n      add\n        /* \"#utility.yul\":10332:10383   */\n      tag_130\n      jump\t// in\n    tag_255:\n        /* \"#utility.yul\":10305:10306   */\n      0x01\n        /* \"#utility.yul\":10302:10303   */\n      dup2\n        /* \"#utility.yul\":10298:10307   */\n      add\n        /* \"#utility.yul\":10293:10307   */\n      swap1\n      pop\n        /* \"#utility.yul\":10255:10393   */\n      jump(tag_252)\n    tag_254:\n        /* \"#utility.yul\":10259:10273   */\n      pop\n        /* \"#utility.yul\":10185:10399   */\n      pop\n      pop\n      jump\t// out\n        /* \"#utility.yul\":10405:11151   */\n    tag_132:\n        /* \"#utility.yul\":10506:10508   */\n      0x1f\n        /* \"#utility.yul\":10501:10504   */\n      dup3\n        /* \"#utility.yul\":10498:10509   */\n      gt\n        /* \"#utility.yul\":10495:11144   */\n      iszero\n      tag_257\n      jumpi\n        /* \"#utility.yul\":10535:10545   */\n      dup3\n        /* \"#utility.yul\":10530:10533   */\n      dup3\n        /* \"#utility.yul\":10527:10546   */\n      gt\n        /* \"#utility.yul\":10524:11134   */\n      iszero\n      tag_258\n      jumpi\n        /* \"#utility.yul\":10581:10619   */\n      tag_259\n        /* \"#utility.yul\":10613:10618   */\n      dup2\n        /* \"#utility.yul\":10581:10619   */\n      tag_121\n      jump\t// in\n    tag_259:\n        /* \"#utility.yul\":10656:10678   */\n      tag_260\n        /* \"#utility.yul\":10674:10677   */\n      dup4\n        /* \"#utility.yul\":10656:10678   */\n      tag_122\n      jump\t// in\n    tag_260:\n        /* \"#utility.yul\":10715:10744   */\n      tag_261\n        /* \"#utility.yul\":10733:10743   */\n      dup6\n        /* \"#utility.yul\":10715:10744   */\n      tag_122\n      jump\t// in\n    tag_261:\n        /* \"#utility.yul\":10905:10907   */\n      0x20\n        /* \"#utility.yul\":10893:10903   */\n      dup7\n        /* \"#utility.yul\":10890:10908   */\n      lt\n        /* \"#utility.yul\":10887:10966   */\n      iszero\n      tag_262\n      jumpi\n        /* \"#utility.yul\":10947:10948   */\n      0x00\n        /* \"#utility.yul\":10931:10948   */\n      swap1\n      pop\n        /* \"#utility.yul\":10887:10966   */\n    tag_262:\n        /* \"#utility.yul\":11016:11028   */\n      dup1\n        /* \"#utility.yul\":11006:11014   */\n      dup4\n        /* \"#utility.yul\":11002:11029   */\n      add\n        /* \"#utility.yul\":11046:11120   */\n      tag_263\n        /* \"#utility.yul\":11106:11118   */\n      dup3\n        /* \"#utility.yul\":11092:11104   */\n      dup5\n        /* \"#utility.yul\":11088:11119   */\n      sub\n        /* \"#utility.yul\":11075:11086   */\n      dup3\n        /* \"#utility.yul\":11046:11120   */\n      tag_131\n      jump\t// in\n    tag_263:\n        /* \"#utility.yul\":10547:11134   */\n      pop\n      pop\n      pop\n      pop\n        /* \"#utility.yul\":10524:11134   */\n    tag_258:\n        /* \"#utility.yul\":10495:11144   */\n    tag_257:\n        /* \"#utility.yul\":10405:11151   */\n      pop\n      pop\n      pop\n      jump\t// out\n        /* \"#utility.yul\":11157:11274   */\n    tag_133:\n        /* \"#utility.yul\":11211:11219   */\n      0x00\n        /* \"#utility.yul\":11261:11266   */\n      dup3\n        /* \"#utility.yul\":11255:11259   */\n      dup3\n        /* \"#utility.yul\":11251:11267   */\n      shr\n        /* \"#utility.yul\":11230:11267   */\n      swap1\n      pop\n        /* \"#utility.yul\":11157:11274   */\n      swap3\n      swap2\n      pop\n      pop\n      jump\t// out\n        /* \"#utility.yul\":11280:11449   */\n    tag_134:\n        /* \"#utility.yul\":11324:11330   */\n      0x00\n        /* \"#utility.yul\":11357:11408   */\n      tag_266\n        /* \"#utility.yul\":11405:11406   */\n      0x00\n        /* \"#utility.yul\":11401:11407   */\n      not\n        /* \"#utility.yul\":11393:11398   */\n      dup5\n        /* \"#utility.yul\":11390:11391   */\n      0x08\n        /* \"#utility.yul\":11386:11399   */\n      mul\n        /* \"#utility.yul\":11357:11408   */\n      tag_133\n      jump\t// in\n    tag_266:\n        /* \"#utility.yul\":11353:11409   */\n      not\n        /* \"#utility.yul\":11438:11442   */\n      dup1\n        /* \"#utility.yul\":11432:11436   */\n      dup4\n        /* \"#utility.yul\":11428:11443   */\n      and\n        /* \"#utility.yul\":11418:11443   */\n      swap2\n      pop\n        /* \"#utility.yul\":11331:11449   */\n      pop\n        /* \"#utility.yul\":11280:11449   */\n      swap3\n      swap2\n      pop\n      pop\n      jump\t// out\n        /* \"#utility.yul\":11454:11749   */\n    tag_135:\n        /* \"#utility.yul\":11530:11534   */\n      0x00\n        /* \"#utility.yul\":11676:11705   */\n      tag_268\n        /* \"#utility.yul\":11701:11704   */\n      dup4\n        /* \"#utility.yul\":11695:11699   */\n      dup4\n        /* \"#utility.yul\":11676:11705   */\n      tag_134\n      jump\t// in\n    tag_268:\n        /* \"#utility.yul\":11668:11705   */\n      swap2\n      pop\n        /* \"#utility.yul\":11738:11741   */\n      dup3\n        /* \"#utility.yul\":11735:11736   */\n      0x02\n        /* \"#utility.yul\":11731:11742   */\n      mul\n        /* \"#utility.yul\":11725:11729   */\n      dup3\n        /* \"#utility.yul\":11722:11743   */\n      or\n        /* \"#utility.yul\":11714:11743   */\n      swap1\n      pop\n        /* \"#utility.yul\":11454:11749   */\n      swap3\n      swap2\n      pop\n      pop\n      jump\t// out\n        /* \"#utility.yul\":11754:13149   */\n    tag_41:\n        /* \"#utility.yul\":11871:11908   */\n      tag_270\n        /* \"#utility.yul\":11904:11907   */\n      dup3\n        /* \"#utility.yul\":11871:11908   */\n      tag_108\n      jump\t// in\n    tag_270:\n        /* \"#utility.yul\":11973:11991   */\n      0xffffffffffffffff\n        /* \"#utility.yul\":11965:11971   */\n      dup2\n        /* \"#utility.yul\":11962:11992   */\n      gt\n        /* \"#utility.yul\":11959:12015   */\n      iszero\n      tag_271\n      jumpi\n        /* \"#utility.yul\":11995:12013   */\n      tag_272\n      tag_98\n      jump\t// in\n    tag_272:\n        /* \"#utility.yul\":11959:12015   */\n    tag_271:\n        /* \"#utility.yul\":12039:12077   */\n      tag_273\n        /* \"#utility.yul\":12071:12075   */\n      dup3\n        /* \"#utility.yul\":12065:12076   */\n      sload\n        /* \"#utility.yul\":12039:12077   */\n      tag_49\n      jump\t// in\n    tag_273:\n        /* \"#utility.yul\":12124:12191   */\n      tag_274\n        /* \"#utility.yul\":12184:12190   */\n      dup3\n        /* \"#utility.yul\":12176:12182   */\n      dup3\n        /* \"#utility.yul\":12170:12174   */\n      dup6\n        /* \"#utility.yul\":12124:12191   */\n      tag_132\n      jump\t// in\n    tag_274:\n        /* \"#utility.yul\":12218:12219   */\n      0x00\n        /* \"#utility.yul\":12242:12246   */\n      0x20\n        /* \"#utility.yul\":12229:12246   */\n      swap1\n      pop\n        /* \"#utility.yul\":12274:12276   */\n      0x1f\n        /* \"#utility.yul\":12266:12272   */\n      dup4\n        /* \"#utility.yul\":12263:12277   */\n      gt\n        /* \"#utility.yul\":12291:12292   */\n      0x01\n        /* \"#utility.yul\":12286:12904   */\n      dup2\n      eq\n      tag_276\n      jumpi\n        /* \"#utility.yul\":12948:12949   */\n      0x00\n        /* \"#utility.yul\":12965:12971   */\n      dup5\n        /* \"#utility.yul\":12962:13039   */\n      iszero\n      tag_277\n      jumpi\n        /* \"#utility.yul\":13014:13023   */\n      dup3\n        /* \"#utility.yul\":13009:13012   */\n      dup8\n        /* \"#utility.yul\":13005:13024   */\n      add\n        /* \"#utility.yul\":12999:13025   */\n      mload\n        /* \"#utility.yul\":12990:13025   */\n      swap1\n      pop\n        /* \"#utility.yul\":12962:13039   */\n    tag_277:\n        /* \"#utility.yul\":13065:13132   */\n      tag_278\n        /* \"#utility.yul\":13125:13131   */\n      dup6\n        /* \"#utility.yul\":13118:13123   */\n      dup3\n        /* \"#utility.yul\":13065:13132   */\n      tag_135\n      jump\t// in\n    tag_278:\n        /* \"#utility.yul\":13059:13063   */\n      dup7\n        /* \"#utility.yul\":13052:13133   */\n      sstore\n        /* \"#utility.yul\":12921:13143   */\n      pop\n        /* \"#utility.yul\":12256:13143   */\n      jump(tag_275)\n        /* \"#utility.yul\":12286:12904   */\n    tag_276:\n        /* \"#utility.yul\":12338:12342   */\n      0x1f\n        /* \"#utility.yul\":12334:12343   */\n      not\n        /* \"#utility.yul\":12326:12332   */\n      dup5\n        /* \"#utility.yul\":12322:12344   */\n      and\n        /* \"#utility.yul\":12372:12409   */\n      tag_279\n        /* \"#utility.yul\":12404:12408   */\n      dup7\n        /* \"#utility.yul\":12372:12409   */\n      tag_121\n      jump\t// in\n    tag_279:\n        /* \"#utility.yul\":12431:12432   */\n      0x00\n        /* \"#utility.yul\":12445:12653   */\n    tag_280:\n        /* \"#utility.yul\":12459:12466   */\n      dup3\n        /* \"#utility.yul\":12456:12457   */\n      dup2\n        /* \"#utility.yul\":12453:12467   */\n      lt\n        /* \"#utility.yul\":12445:12653   */\n      iszero\n      tag_282\n      jumpi\n        /* \"#utility.yul\":12538:12547   */\n      dup5\n        /* \"#utility.yul\":12533:12536   */\n      dup10\n        /* \"#utility.yul\":12529:12548   */\n      add\n        /* \"#utility.yul\":12523:12549   */\n      mload\n        /* \"#utility.yul\":12515:12521   */\n      dup3\n        /* \"#utility.yul\":12508:12550   */\n      sstore\n        /* \"#utility.yul\":12589:12590   */\n      0x01\n        /* \"#utility.yul\":12581:12587   */\n      dup3\n        /* \"#utility.yul\":12577:12591   */\n      add\n        /* \"#utility.yul\":12567:12591   */\n      swap2\n      pop\n        /* \"#utility.yul\":12636:12638   */\n      0x20\n        /* \"#utility.yul\":12625:12634   */\n      dup6\n        /* \"#utility.yul\":12621:12639   */\n      add\n        /* \"#utility.yul\":12608:12639   */\n      swap5\n      pop\n        /* \"#utility.yul\":12482:12486   */\n      0x20\n        /* \"#utility.yul\":12479:12480   */\n      dup2\n        /* \"#utility.yul\":12475:12487   */\n      add\n        /* \"#utility.yul\":12470:12487   */\n      swap1\n      pop\n        /* \"#utility.yul\":12445:12653   */\n      jump(tag_280)\n    tag_282:\n        /* \"#utility.yul\":12681:12687   */\n      dup7\n        /* \"#utility.yul\":12672:12679   */\n      dup4\n        /* \"#utility.yul\":12669:12688   */\n      lt\n        /* \"#utility.yul\":12666:12845   */\n      iszero\n      tag_283\n      jumpi\n        /* \"#utility.yul\":12739:12748   */\n      dup5\n        /* \"#utility.yul\":12734:12737   */\n      dup10\n        /* \"#utility.yul\":12730:12749   */\n      add\n        /* \"#utility.yul\":12724:12750   */\n      mload\n        /* \"#utility.yul\":12782:12830   */\n      tag_284\n        /* \"#utility.yul\":12824:12828   */\n      0x1f\n        /* \"#utility.yul\":12816:12822   */\n      dup10\n        /* \"#utility.yul\":12812:12829   */\n      and\n        /* \"#utility.yul\":12801:12810   */\n      dup3\n        /* \"#utility.yul\":12782:12830   */\n      tag_134\n      jump\t// in\n    tag_284:\n        /* \"#utility.yul\":12774:12780   */\n      dup4\n        /* \"#utility.yul\":12767:12831   */\n      sstore\n        /* \"#utility.yul\":12689:12845   */\n      pop\n        /* \"#utility.yul\":12666:12845   */\n    tag_283:\n        /* \"#utility.yul\":12891:12892   */\n      0x01\n        /* \"#utility.yul\":12887:12888   */\n      0x02\n        /* \"#utility.yul\":12879:12885   */\n      dup9\n        /* \"#utility.yul\":12875:12889   */\n      mul\n        /* \"#utility.yul\":12871:12893   */\n      add\n        /* \"#utility.yul\":12865:12869   */\n      dup9\n        /* \"#utility.yul\":12858:12894   */\n      sstore\n        /* \"#utility.yul\":12293:12904   */\n      pop\n      pop\n      pop\n        /* \"#utility.yul\":12256:13143   */\n    tag_275:\n      pop\n        /* \"#utility.yul\":11846:13149   */\n      pop\n      pop\n      pop\n        /* \"#utility.yul\":11754:13149   */\n      pop\n      pop\n      jump\t// out\n        /* \"#utility.yul\":13155:13335   */\n    tag_46:\n        /* \"#utility.yul\":13203:13280   */\n      0x4e487b7100000000000000000000000000000000000000000000000000000000\n        /* \"#utility.yul\":13200:13201   */\n      0x00\n        /* \"#utility.yul\":13193:13281   */\n      mstore\n        /* \"#utility.yul\":13300:13304   */\n      0x32\n        /* \"#utility.yul\":13297:13298   */\n      0x04\n        /* \"#utility.yul\":13290:13305   */\n      mstore\n        /* \"#utility.yul\":13324:13328   */\n      0x24\n        /* \"#utility.yul\":13321:13322   */\n      0x00\n        /* \"#utility.yul\":13314:13329   */\n      revert\n        /* \"#utility.yul\":13341:13505   */\n    tag_136:\n        /* \"#utility.yul\":13481:13497   */\n      0x494420746964616b2076616c6964000000000000000000000000000000000000\n        /* \"#utility.yul\":13477:13478   */\n      0x00\n        /* \"#utility.yul\":13469:13475   */\n      dup3\n        /* \"#utility.yul\":13465:13479   */\n      add\n        /* \"#utility.yul\":13458:13498   */\n      mstore\n        /* \"#utility.yul\":13341:13505   */\n      pop\n      jump\t// out\n        /* \"#utility.yul\":13511:13877   */\n    tag_137:\n        /* \"#utility.yul\":13653:13656   */\n      0x00\n        /* \"#utility.yul\":13674:13741   */\n      tag_288\n        /* \"#utility.yul\":13738:13740   */\n      0x0e\n        /* \"#utility.yul\":13733:13736   */\n      dup4\n        /* \"#utility.yul\":13674:13741   */\n      tag_109\n      jump\t// in\n    tag_288:\n        /* \"#utility.yul\":13667:13741   */\n      swap2\n      pop\n        /* \"#utility.yul\":13750:13843   */\n      tag_289\n        /* \"#utility.yul\":13839:13842   */\n      dup3\n        /* \"#utility.yul\":13750:13843   */\n      tag_136\n      jump\t// in\n    tag_289:\n        /* \"#utility.yul\":13868:13870   */\n      0x20\n        /* \"#utility.yul\":13863:13866   */\n      dup3\n        /* \"#utility.yul\":13859:13871   */\n      add\n        /* \"#utility.yul\":13852:13871   */\n      swap1\n      pop\n        /* \"#utility.yul\":13511:13877   */\n      swap2\n      swap1\n      pop\n      jump\t// out\n        /* \"#utility.yul\":13883:14302   */\n    tag_75:\n        /* \"#utility.yul\":14049:14053   */\n      0x00\n        /* \"#utility.yul\":14087:14089   */\n      0x20\n        /* \"#utility.yul\":14076:14085   */\n      dup3\n        /* \"#utility.yul\":14072:14090   */\n      add\n        /* \"#utility.yul\":14064:14090   */\n      swap1\n      pop\n        /* \"#utility.yul\":14136:14145   */\n      dup2\n        /* \"#utility.yul\":14130:14134   */\n      dup2\n        /* \"#utility.yul\":14126:14146   */\n      sub\n        /* \"#utility.yul\":14122:14123   */\n      0x00\n        /* \"#utility.yul\":14111:14120   */\n      dup4\n        /* \"#utility.yul\":14107:14124   */\n      add\n        /* \"#utility.yul\":14100:14147   */\n      mstore\n        /* \"#utility.yul\":14164:14295   */\n      tag_291\n        /* \"#utility.yul\":14290:14294   */\n      dup2\n        /* \"#utility.yul\":14164:14295   */\n      tag_137\n      jump\t// in\n    tag_291:\n        /* \"#utility.yul\":14156:14295   */\n      swap1\n      pop\n        /* \"#utility.yul\":13883:14302   */\n      swap2\n      swap1\n      pop\n      jump\t// out\n        /* \"#utility.yul\":14308:14476   */\n    tag_138:\n        /* \"#utility.yul\":14448:14468   */\n      0x416c6174207375646168206469706573616e0000000000000000000000000000\n        /* \"#utility.yul\":14444:14445   */\n      0x00\n        /* \"#utility.yul\":14436:14442   */\n      dup3\n        /* \"#utility.yul\":14432:14446   */\n      add\n        /* \"#utility.yul\":14425:14469   */\n      mstore\n        /* \"#utility.yul\":14308:14476   */\n      pop\n      jump\t// out\n        /* \"#utility.yul\":14482:14848   */\n    tag_139:\n        /* \"#utility.yul\":14624:14627   */\n      0x00\n        /* \"#utility.yul\":14645:14712   */\n      tag_294\n        /* \"#utility.yul\":14709:14711   */\n      0x12\n        /* \"#utility.yul\":14704:14707   */\n      dup4\n        /* \"#utility.yul\":14645:14712   */\n      tag_109\n      jump\t// in\n    tag_294:\n        /* \"#utility.yul\":14638:14712   */\n      swap2\n      pop\n        /* \"#utility.yul\":14721:14814   */\n      tag_295\n        /* \"#utility.yul\":14810:14813   */\n      dup3\n        /* \"#utility.yul\":14721:14814   */\n      tag_138\n      jump\t// in\n    tag_295:\n        /* \"#utility.yul\":14839:14841   */\n      0x20\n        /* \"#utility.yul\":14834:14837   */\n      dup3\n        /* \"#utility.yul\":14830:14842   */\n      add\n        /* \"#utility.yul\":14823:14842   */\n      swap1\n      pop\n        /* \"#utility.yul\":14482:14848   */\n      swap2\n      swap1\n      pop\n      jump\t// out\n        /* \"#utility.yul\":14854:15273   */\n    tag_81:\n        /* \"#utility.yul\":15020:15024   */\n      0x00\n        /* \"#utility.yul\":15058:15060   */\n      0x20\n        /* \"#utility.yul\":15047:15056   */\n      dup3\n        /* \"#utility.yul\":15043:15061   */\n      add\n        /* \"#utility.yul\":15035:15061   */\n      swap1\n      pop\n        /* \"#utility.yul\":15107:15116   */\n      dup2\n        /* \"#utility.yul\":15101:15105   */\n      dup2\n        /* \"#utility.yul\":15097:15117   */\n      sub\n        /* \"#utility.yul\":15093:15094   */\n      0x00\n        /* \"#utility.yul\":15082:15091   */\n      dup4\n        /* \"#utility.yul\":15078:15095   */\n      add\n        /* \"#utility.yul\":15071:15118   */\n      mstore\n        /* \"#utility.yul\":15135:15266   */\n      tag_297\n        /* \"#utility.yul\":15261:15265   */\n      dup2\n        /* \"#utility.yul\":15135:15266   */\n      tag_139\n      jump\t// in\n    tag_297:\n        /* \"#utility.yul\":15127:15266   */\n      swap1\n      pop\n        /* \"#utility.yul\":14854:15273   */\n      swap2\n      swap1\n      pop\n      jump\t// out\n\n    auxdata: 0xa2646970667358221220f79b38484ff6a9c57f851ac96ae0f38ccc9461c24bffa004178718b1aac9f8be64736f6c63430008220033\n}\n",
				"bytecode": {
					"linkReferences": {},
					"object": "6080604052348015600e575f5ffd5b50335f5f6101000a81548173ffffffffffffffffffffffffffffffffffffffff021916908373ffffffffffffffffffffffffffffffffffffffff160217905550610ff08061005b5f395ff3fe608060405234801561000f575f5ffd5b5060043610610060575f3560e01c8063273e7049146100645780632efd9e6b1461008057806362a6782f146100b35780639cb9119b146100e6578063ade52d8d14610104578063f851a44014610120575b5f5ffd5b61007e6004803603810190610079919061092e565b61013e565b005b61009a600480360381019061009591906109a8565b6102d0565b6040516100aa9493929190610a8c565b60405180910390f35b6100cd60048036038101906100c891906109a8565b6104b6565b6040516100dd9493929190610a8c565b60405180910390f35b6100ee610629565b6040516100fb9190610aec565b60405180910390f35b61011e60048036038101906101199190610b05565b610635565b005b6101286107bd565b6040516101359190610b5f565b60405180910390f35b5f5f9054906101000a900473ffffffffffffffffffffffffffffffffffffffff1673ffffffffffffffffffffffffffffffffffffffff163373ffffffffffffffffffffffffffffffffffffffff16146101cc576040517f08c379a00000000000000000000000000000000000000000000000000000000081526004016101c390610bc2565b60405180910390fd5b600160405180608001604052808381526020015f151581526020015f73ffffffffffffffffffffffffffffffffffffffff16815260200160405180602001604052805f815250815250908060018154018082558091505060019003905f5260205f2090600302015f909190919091505f820151815f01908161024e9190610dee565b506020820151816001015f6101000a81548160ff02191690831515021790555060408201518160010160016101000a81548173ffffffffffffffffffffffffffffffffffffffff021916908373ffffffffffffffffffffffffffffffffffffffff16021790555060608201518160020190816102ca9190610dee565b50505050565b60605f5f60605f600186815481106102eb576102ea610ebd565b5b905f5260205f2090600302016040518060800160405290815f8201805461031190610c0d565b80601f016020809104026020016040519081016040528092919081815260200182805461033d90610c0d565b80156103885780601f1061035f57610100808354040283529160200191610388565b820191905f5260205f20905b81548152906001019060200180831161036b57829003601f168201915b50505050508152602001600182015f9054906101000a900460ff161515151581526020016001820160019054906101000a900473ffffffffffffffffffffffffffffffffffffffff1673ffffffffffffffffffffffffffffffffffffffff1673ffffffffffffffffffffffffffffffffffffffff16815260200160028201805461041190610c0d565b80601f016020809104026020016040519081016040528092919081815260200182805461043d90610c0d565b80156104885780601f1061045f57610100808354040283529160200191610488565b820191905f5260205f20905b81548152906001019060200180831161046b57829003601f168201915b5050505050815250509050805f01518160200151826040015183606001519450945094509450509193509193565b600181815481106104c5575f80fd5b905f5260205f2090600302015f91509050805f0180546104e490610c0d565b80601f016020809104026020016040519081016040528092919081815260200182805461051090610c0d565b801561055b5780601f106105325761010080835404028352916020019161055b565b820191905f5260205f20905b81548152906001019060200180831161053e57829003601f168201915b505050505090806001015f9054906101000a900460ff16908060010160019054906101000a900473ffffffffffffffffffffffffffffffffffffffff16908060020180546105a890610c0d565b80601f01602080910402602001604051908101604052809291908181526020018280546105d490610c0d565b801561061f5780601f106105f65761010080835404028352916020019161061f565b820191905f5260205f20905b81548152906001019060200180831161060257829003601f168201915b5050505050905084565b5f600180549050905090565b600180549050821061067c576040517f08c379a000000000000000000000000000000000000000000000000000000000815260040161067390610f34565b60405180910390fd5b600182815481106106905761068f610ebd565b5b905f5260205f2090600302016001015f9054906101000a900460ff16156106ec576040517f08c379a00000000000000000000000000000000000000000000000000000000081526004016106e390610f9c565b60405180910390fd5b600180838154811061070157610700610ebd565b5b905f5260205f2090600302016001015f6101000a81548160ff021916908315150217905550336001838154811061073b5761073a610ebd565b5b905f5260205f20906003020160010160016101000a81548173ffffffffffffffffffffffffffffffffffffffff021916908373ffffffffffffffffffffffffffffffffffffffff160217905550806001838154811061079d5761079c610ebd565b5b905f5260205f20906003020160020190816107b89190610dee565b505050565b5f5f9054906101000a900473ffffffffffffffffffffffffffffffffffffffff1681565b5f604051905090565b5f5ffd5b5f5ffd5b5f5ffd5b5f5ffd5b5f601f19601f8301169050919050565b7f4e487b71000000000000000000000000000000000000000000000000000000005f52604160045260245ffd5b610840826107fa565b810181811067ffffffffffffffff8211171561085f5761085e61080a565b5b80604052505050565b5f6108716107e1565b905061087d8282610837565b919050565b5f67ffffffffffffffff82111561089c5761089b61080a565b5b6108a5826107fa565b9050602081019050919050565b828183375f83830152505050565b5f6108d26108cd84610882565b610868565b9050828152602081018484840111156108ee576108ed6107f6565b5b6108f98482856108b2565b509392505050565b5f82601f830112610915576109146107f2565b5b81356109258482602086016108c0565b91505092915050565b5f60208284031215610943576109426107ea565b5b5f82013567ffffffffffffffff8111156109605761095f6107ee565b5b61096c84828501610901565b91505092915050565b5f819050919050565b61098781610975565b8114610991575f5ffd5b50565b5f813590506109a28161097e565b92915050565b5f602082840312156109bd576109bc6107ea565b5b5f6109ca84828501610994565b91505092915050565b5f81519050919050565b5f82825260208201905092915050565b8281835e5f83830152505050565b5f610a05826109d3565b610a0f81856109dd565b9350610a1f8185602086016109ed565b610a28816107fa565b840191505092915050565b5f8115159050919050565b610a4781610a33565b82525050565b5f73ffffffffffffffffffffffffffffffffffffffff82169050919050565b5f610a7682610a4d565b9050919050565b610a8681610a6c565b82525050565b5f6080820190508181035f830152610aa481876109fb565b9050610ab36020830186610a3e565b610ac06040830185610a7d565b8181036060830152610ad281846109fb565b905095945050505050565b610ae681610975565b82525050565b5f602082019050610aff5f830184610add565b92915050565b5f5f60408385031215610b1b57610b1a6107ea565b5b5f610b2885828601610994565b925050602083013567ffffffffffffffff811115610b4957610b486107ee565b5b610b5585828601610901565b9150509250929050565b5f602082019050610b725f830184610a7d565b92915050565b7f48616e79612061646d696e0000000000000000000000000000000000000000005f82015250565b5f610bac600b836109dd565b9150610bb782610b78565b602082019050919050565b5f6020820190508181035f830152610bd981610ba0565b9050919050565b7f4e487b71000000000000000000000000000000000000000000000000000000005f52602260045260245ffd5b5f6002820490506001821680610c2457607f821691505b602082108103610c3757610c36610be0565b5b50919050565b5f819050815f5260205f209050919050565b5f6020601f8301049050919050565b5f82821b905092915050565b5f60088302610c997fffffffffffffffffffffffffffffffffffffffffffffffffffffffffffffffff82610c5e565b610ca38683610c5e565b95508019841693508086168417925050509392505050565b5f819050919050565b5f610cde610cd9610cd484610975565b610cbb565b610975565b9050919050565b5f819050919050565b610cf783610cc4565b610d0b610d0382610ce5565b848454610c6a565b825550505050565b5f5f905090565b610d22610d13565b610d2d818484610cee565b505050565b5f5b82811015610d5357610d485f828401610d1a565b600181019050610d34565b505050565b601f821115610da65782821115610da557610d7281610c3d565b610d7b83610c4f565b610d8485610c4f565b6020861015610d91575f90505b808301610da082840382610d32565b505050505b5b505050565b5f82821c905092915050565b5f610dc65f1984600802610dab565b1980831691505092915050565b5f610dde8383610db7565b9150826002028217905092915050565b610df7826109d3565b67ffffffffffffffff811115610e1057610e0f61080a565b5b610e1a8254610c0d565b610e25828285610d58565b5f60209050601f831160018114610e56575f8415610e44578287015190505b610e4e8582610dd3565b865550610eb5565b601f198416610e6486610c3d565b5f5b82811015610e8b57848901518255600182019150602085019450602081019050610e66565b86831015610ea85784890151610ea4601f891682610db7565b8355505b6001600288020188555050505b505050505050565b7f4e487b71000000000000000000000000000000000000000000000000000000005f52603260045260245ffd5b7f494420746964616b2076616c69640000000000000000000000000000000000005f82015250565b5f610f1e600e836109dd565b9150610f2982610eea565b602082019050919050565b5f6020820190508181035f830152610f4b81610f12565b9050919050565b7f416c6174207375646168206469706573616e00000000000000000000000000005f82015250565b5f610f866012836109dd565b9150610f9182610f52565b602082019050919050565b5f6020820190508181035f830152610fb381610f7a565b905091905056fea2646970667358221220f79b38484ff6a9c57f851ac96ae0f38ccc9461c24bffa004178718b1aac9f8be64736f6c63430008220033",
					"opcodes": "PUSH1 0x80 PUSH1 0x40 MSTORE CALLVALUE DUP1 ISZERO PUSH1 0xE JUMPI PUSH0 PUSH0 REVERT JUMPDEST POP CALLER PUSH0 PUSH0 PUSH2 0x100 EXP DUP2 SLOAD DUP2 PUSH20 0xFFFFFFFFFFFFFFFFFFFFFFFFFFFFFFFFFFFFFFFF MUL NOT AND SWAP1 DUP4 PUSH20 0xFFFFFFFFFFFFFFFFFFFFFFFFFFFFFFFFFFFFFFFF AND MUL OR SWAP1 SSTORE POP PUSH2 0xFF0 DUP1 PUSH2 0x5B PUSH0 CODECOPY PUSH0 RETURN INVALID PUSH1 0x80 PUSH1 0x40 MSTORE CALLVALUE DUP1 ISZERO PUSH2 0xF JUMPI PUSH0 PUSH0 REVERT JUMPDEST POP PUSH1 0x4 CALLDATASIZE LT PUSH2 0x60 JUMPI PUSH0 CALLDATALOAD PUSH1 0xE0 SHR DUP1 PUSH4 0x273E7049 EQ PUSH2 0x64 JUMPI DUP1 PUSH4 0x2EFD9E6B EQ PUSH2 0x80 JUMPI DUP1 PUSH4 0x62A6782F EQ PUSH2 0xB3 JUMPI DUP1 PUSH4 0x9CB9119B EQ PUSH2 0xE6 JUMPI DUP1 PUSH4 0xADE52D8D EQ PUSH2 0x104 JUMPI DUP1 PUSH4 0xF851A440 EQ PUSH2 0x120 JUMPI JUMPDEST PUSH0 PUSH0 REVERT JUMPDEST PUSH2 0x7E PUSH1 0x4 DUP1 CALLDATASIZE SUB DUP2 ADD SWAP1 PUSH2 0x79 SWAP2 SWAP1 PUSH2 0x92E JUMP JUMPDEST PUSH2 0x13E JUMP JUMPDEST STOP JUMPDEST PUSH2 0x9A PUSH1 0x4 DUP1 CALLDATASIZE SUB DUP2 ADD SWAP1 PUSH2 0x95 SWAP2 SWAP1 PUSH2 0x9A8 JUMP JUMPDEST PUSH2 0x2D0 JUMP JUMPDEST PUSH1 0x40 MLOAD PUSH2 0xAA SWAP5 SWAP4 SWAP3 SWAP2 SWAP1 PUSH2 0xA8C JUMP JUMPDEST PUSH1 0x40 MLOAD DUP1 SWAP2 SUB SWAP1 RETURN JUMPDEST PUSH2 0xCD PUSH1 0x4 DUP1 CALLDATASIZE SUB DUP2 ADD SWAP1 PUSH2 0xC8 SWAP2 SWAP1 PUSH2 0x9A8 JUMP JUMPDEST PUSH2 0x4B6 JUMP JUMPDEST PUSH1 0x40 MLOAD PUSH2 0xDD SWAP5 SWAP4 SWAP3 SWAP2 SWAP1 PUSH2 0xA8C JUMP JUMPDEST PUSH1 0x40 MLOAD DUP1 SWAP2 SUB SWAP1 RETURN JUMPDEST PUSH2 0xEE PUSH2 0x629 JUMP JUMPDEST PUSH1 0x40 MLOAD PUSH2 0xFB SWAP2 SWAP1 PUSH2 0xAEC JUMP JUMPDEST PUSH1 0x40 MLOAD DUP1 SWAP2 SUB SWAP1 RETURN JUMPDEST PUSH2 0x11E PUSH1 0x4 DUP1 CALLDATASIZE SUB DUP2 ADD SWAP1 PUSH2 0x119 SWAP2 SWAP1 PUSH2 0xB05 JUMP JUMPDEST PUSH2 0x635 JUMP JUMPDEST STOP JUMPDEST PUSH2 0x128 PUSH2 0x7BD JUMP JUMPDEST PUSH1 0x40 MLOAD PUSH2 0x135 SWAP2 SWAP1 PUSH2 0xB5F JUMP JUMPDEST PUSH1 0x40 MLOAD DUP1 SWAP2 SUB SWAP1 RETURN JUMPDEST PUSH0 PUSH0 SWAP1 SLOAD SWAP1 PUSH2 0x100 EXP SWAP1 DIV PUSH20 0xFFFFFFFFFFFFFFFFFFFFFFFFFFFFFFFFFFFFFFFF AND PUSH20 0xFFFFFFFFFFFFFFFFFFFFFFFFFFFFFFFFFFFFFFFF AND CALLER PUSH20 0xFFFFFFFFFFFFFFFFFFFFFFFFFFFFFFFFFFFFFFFF AND EQ PUSH2 0x1CC JUMPI PUSH1 0x40 MLOAD PUSH32 0x8C379A000000000000000000000000000000000000000000000000000000000 DUP2 MSTORE PUSH1 0x4 ADD PUSH2 0x1C3 SWAP1 PUSH2 0xBC2 JUMP JUMPDEST PUSH1 0x40 MLOAD DUP1 SWAP2 SUB SWAP1 REVERT JUMPDEST PUSH1 0x1 PUSH1 0x40 MLOAD DUP1 PUSH1 0x80 ADD PUSH1 0x40 MSTORE DUP1 DUP4 DUP2 MSTORE PUSH1 0x20 ADD PUSH0 ISZERO ISZERO DUP2 MSTORE PUSH1 0x20 ADD PUSH0 PUSH20 0xFFFFFFFFFFFFFFFFFFFFFFFFFFFFFFFFFFFFFFFF AND DUP2 MSTORE PUSH1 0x20 ADD PUSH1 0x40 MLOAD DUP1 PUSH1 0x20 ADD PUSH1 0x40 MSTORE DUP1 PUSH0 DUP2 MSTORE POP DUP2 MSTORE POP SWAP1 DUP1 PUSH1 0x1 DUP2 SLOAD ADD DUP1 DUP3 SSTORE DUP1 SWAP2 POP POP PUSH1 0x1 SWAP1 SUB SWAP1 PUSH0 MSTORE PUSH1 0x20 PUSH0 KECCAK256 SWAP1 PUSH1 0x3 MUL ADD PUSH0 SWAP1 SWAP2 SWAP1 SWAP2 SWAP1 SWAP2 POP PUSH0 DUP3 ADD MLOAD DUP2 PUSH0 ADD SWAP1 DUP2 PUSH2 0x24E SWAP2 SWAP1 PUSH2 0xDEE JUMP JUMPDEST POP PUSH1 0x20 DUP3 ADD MLOAD DUP2 PUSH1 0x1 ADD PUSH0 PUSH2 0x100 EXP DUP2 SLOAD DUP2 PUSH1 0xFF MUL NOT AND SWAP1 DUP4 ISZERO ISZERO MUL OR SWAP1 SSTORE POP PUSH1 0x40 DUP3 ADD MLOAD DUP2 PUSH1 0x1 ADD PUSH1 0x1 PUSH2 0x100 EXP DUP2 SLOAD DUP2 PUSH20 0xFFFFFFFFFFFFFFFFFFFFFFFFFFFFFFFFFFFFFFFF MUL NOT AND SWAP1 DUP4 PUSH20 0xFFFFFFFFFFFFFFFFFFFFFFFFFFFFFFFFFFFFFFFF AND MUL OR SWAP1 SSTORE POP PUSH1 0x60 DUP3 ADD MLOAD DUP2 PUSH1 0x2 ADD SWAP1 DUP2 PUSH2 0x2CA SWAP2 SWAP1 PUSH2 0xDEE JUMP JUMPDEST POP POP POP POP JUMP JUMPDEST PUSH1 0x60 PUSH0 PUSH0 PUSH1 0x60 PUSH0 PUSH1 0x1 DUP7 DUP2 SLOAD DUP2 LT PUSH2 0x2EB JUMPI PUSH2 0x2EA PUSH2 0xEBD JUMP JUMPDEST JUMPDEST SWAP1 PUSH0 MSTORE PUSH1 0x20 PUSH0 KECCAK256 SWAP1 PUSH1 0x3 MUL ADD PUSH1 0x40 MLOAD DUP1 PUSH1 0x80 ADD PUSH1 0x40 MSTORE SWAP1 DUP2 PUSH0 DUP3 ADD DUP1 SLOAD PUSH2 0x311 SWAP1 PUSH2 0xC0D JUMP JUMPDEST DUP1 PUSH1 0x1F ADD PUSH1 0x20 DUP1 SWAP2 DIV MUL PUSH1 0x20 ADD PUSH1 0x40 MLOAD SWAP1 DUP2 ADD PUSH1 0x40 MSTORE DUP1 SWAP3 SWAP2 SWAP1 DUP2 DUP2 MSTORE PUSH1 0x20 ADD DUP3 DUP1 SLOAD PUSH2 0x33D SWAP1 PUSH2 0xC0D JUMP JUMPDEST DUP1 ISZERO PUSH2 0x388 JUMPI DUP1 PUSH1 0x1F LT PUSH2 0x35F JUMPI PUSH2 0x100 DUP1 DUP4 SLOAD DIV MUL DUP4 MSTORE SWAP2 PUSH1 0x20 ADD SWAP2 PUSH2 0x388 JUMP JUMPDEST DUP3 ADD SWAP2 SWAP1 PUSH0 MSTORE PUSH1 0x20 PUSH0 KECCAK256 SWAP1 JUMPDEST DUP2 SLOAD DUP2 MSTORE SWAP1 PUSH1 0x1 ADD SWAP1 PUSH1 0x20 ADD DUP1 DUP4 GT PUSH2 0x36B JUMPI DUP3 SWAP1 SUB PUSH1 0x1F AND DUP3 ADD SWAP2 JUMPDEST POP POP POP POP POP DUP2 MSTORE PUSH1 0x20 ADD PUSH1 0x1 DUP3 ADD PUSH0 SWAP1 SLOAD SWAP1 PUSH2 0x100 EXP SWAP1 DIV PUSH1 0xFF AND ISZERO ISZERO ISZERO ISZERO DUP2 MSTORE PUSH1 0x20 ADD PUSH1 0x1 DUP3 ADD PUSH1 0x1 SWAP1 SLOAD SWAP1 PUSH2 0x100 EXP SWAP1 DIV PUSH20 0xFFFFFFFFFFFFFFFFFFFFFFFFFFFFFFFFFFFFFFFF AND PUSH20 0xFFFFFFFFFFFFFFFFFFFFFFFFFFFFFFFFFFFFFFFF AND PUSH20 0xFFFFFFFFFFFFFFFFFFFFFFFFFFFFFFFFFFFFFFFF AND DUP2 MSTORE PUSH1 0x20 ADD PUSH1 0x2 DUP3 ADD DUP1 SLOAD PUSH2 0x411 SWAP1 PUSH2 0xC0D JUMP JUMPDEST DUP1 PUSH1 0x1F ADD PUSH1 0x20 DUP1 SWAP2 DIV MUL PUSH1 0x20 ADD PUSH1 0x40 MLOAD SWAP1 DUP2 ADD PUSH1 0x40 MSTORE DUP1 SWAP3 SWAP2 SWAP1 DUP2 DUP2 MSTORE PUSH1 0x20 ADD DUP3 DUP1 SLOAD PUSH2 0x43D SWAP1 PUSH2 0xC0D JUMP JUMPDEST DUP1 ISZERO PUSH2 0x488 JUMPI DUP1 PUSH1 0x1F LT PUSH2 0x45F JUMPI PUSH2 0x100 DUP1 DUP4 SLOAD DIV MUL DUP4 MSTORE SWAP2 PUSH1 0x20 ADD SWAP2 PUSH2 0x488 JUMP JUMPDEST DUP3 ADD SWAP2 SWAP1 PUSH0 MSTORE PUSH1 0x20 PUSH0 KECCAK256 SWAP1 JUMPDEST DUP2 SLOAD DUP2 MSTORE SWAP1 PUSH1 0x1 ADD SWAP1 PUSH1 0x20 ADD DUP1 DUP4 GT PUSH2 0x46B JUMPI DUP3 SWAP1 SUB PUSH1 0x1F AND DUP3 ADD SWAP2 JUMPDEST POP POP POP POP POP DUP2 MSTORE POP POP SWAP1 POP DUP1 PUSH0 ADD MLOAD DUP2 PUSH1 0x20 ADD MLOAD DUP3 PUSH1 0x40 ADD MLOAD DUP4 PUSH1 0x60 ADD MLOAD SWAP5 POP SWAP5 POP SWAP5 POP SWAP5 POP POP SWAP2 SWAP4 POP SWAP2 SWAP4 JUMP JUMPDEST PUSH1 0x1 DUP2 DUP2 SLOAD DUP2 LT PUSH2 0x4C5 JUMPI PUSH0 DUP1 REVERT JUMPDEST SWAP1 PUSH0 MSTORE PUSH1 0x20 PUSH0 KECCAK256 SWAP1 PUSH1 0x3 MUL ADD PUSH0 SWAP2 POP SWAP1 POP DUP1 PUSH0 ADD DUP1 SLOAD PUSH2 0x4E4 SWAP1 PUSH2 0xC0D JUMP JUMPDEST DUP1 PUSH1 0x1F ADD PUSH1 0x20 DUP1 SWAP2 DIV MUL PUSH1 0x20 ADD PUSH1 0x40 MLOAD SWAP1 DUP2 ADD PUSH1 0x40 MSTORE DUP1 SWAP3 SWAP2 SWAP1 DUP2 DUP2 MSTORE PUSH1 0x20 ADD DUP3 DUP1 SLOAD PUSH2 0x510 SWAP1 PUSH2 0xC0D JUMP JUMPDEST DUP1 ISZERO PUSH2 0x55B JUMPI DUP1 PUSH1 0x1F LT PUSH2 0x532 JUMPI PUSH2 0x100 DUP1 DUP4 SLOAD DIV MUL DUP4 MSTORE SWAP2 PUSH1 0x20 ADD SWAP2 PUSH2 0x55B JUMP JUMPDEST DUP3 ADD SWAP2 SWAP1 PUSH0 MSTORE PUSH1 0x20 PUSH0 KECCAK256 SWAP1 JUMPDEST DUP2 SLOAD DUP2 MSTORE SWAP1 PUSH1 0x1 ADD SWAP1 PUSH1 0x20 ADD DUP1 DUP4 GT PUSH2 0x53E JUMPI DUP3 SWAP1 SUB PUSH1 0x1F AND DUP3 ADD SWAP2 JUMPDEST POP POP POP POP POP SWAP1 DUP1 PUSH1 0x1 ADD PUSH0 SWAP1 SLOAD SWAP1 PUSH2 0x100 EXP SWAP1 DIV PUSH1 0xFF AND SWAP1 DUP1 PUSH1 0x1 ADD PUSH1 0x1 SWAP1 SLOAD SWAP1 PUSH2 0x100 EXP SWAP1 DIV PUSH20 0xFFFFFFFFFFFFFFFFFFFFFFFFFFFFFFFFFFFFFFFF AND SWAP1 DUP1 PUSH1 0x2 ADD DUP1 SLOAD PUSH2 0x5A8 SWAP1 PUSH2 0xC0D JUMP JUMPDEST DUP1 PUSH1 0x1F ADD PUSH1 0x20 DUP1 SWAP2 DIV MUL PUSH1 0x20 ADD PUSH1 0x40 MLOAD SWAP1 DUP2 ADD PUSH1 0x40 MSTORE DUP1 SWAP3 SWAP2 SWAP1 DUP2 DUP2 MSTORE PUSH1 0x20 ADD DUP3 DUP1 SLOAD PUSH2 0x5D4 SWAP1 PUSH2 0xC0D JUMP JUMPDEST DUP1 ISZERO PUSH2 0x61F JUMPI DUP1 PUSH1 0x1F LT PUSH2 0x5F6 JUMPI PUSH2 0x100 DUP1 DUP4 SLOAD DIV MUL DUP4 MSTORE SWAP2 PUSH1 0x20 ADD SWAP2 PUSH2 0x61F JUMP JUMPDEST DUP3 ADD SWAP2 SWAP1 PUSH0 MSTORE PUSH1 0x20 PUSH0 KECCAK256 SWAP1 JUMPDEST DUP2 SLOAD DUP2 MSTORE SWAP1 PUSH1 0x1 ADD SWAP1 PUSH1 0x20 ADD DUP1 DUP4 GT PUSH2 0x602 JUMPI DUP3 SWAP1 SUB PUSH1 0x1F AND DUP3 ADD SWAP2 JUMPDEST POP POP POP POP POP SWAP1 POP DUP5 JUMP JUMPDEST PUSH0 PUSH1 0x1 DUP1 SLOAD SWAP1 POP SWAP1 POP SWAP1 JUMP JUMPDEST PUSH1 0x1 DUP1 SLOAD SWAP1 POP DUP3 LT PUSH2 0x67C JUMPI PUSH1 0x40 MLOAD PUSH32 0x8C379A000000000000000000000000000000000000000000000000000000000 DUP2 MSTORE PUSH1 0x4 ADD PUSH2 0x673 SWAP1 PUSH2 0xF34 JUMP JUMPDEST PUSH1 0x40 MLOAD DUP1 SWAP2 SUB SWAP1 REVERT JUMPDEST PUSH1 0x1 DUP3 DUP2 SLOAD DUP2 LT PUSH2 0x690 JUMPI PUSH2 0x68F PUSH2 0xEBD JUMP JUMPDEST JUMPDEST SWAP1 PUSH0 MSTORE PUSH1 0x20 PUSH0 KECCAK256 SWAP1 PUSH1 0x3 MUL ADD PUSH1 0x1 ADD PUSH0 SWAP1 SLOAD SWAP1 PUSH2 0x100 EXP SWAP1 DIV PUSH1 0xFF AND ISZERO PUSH2 0x6EC JUMPI PUSH1 0x40 MLOAD PUSH32 0x8C379A000000000000000000000000000000000000000000000000000000000 DUP2 MSTORE PUSH1 0x4 ADD PUSH2 0x6E3 SWAP1 PUSH2 0xF9C JUMP JUMPDEST PUSH1 0x40 MLOAD DUP1 SWAP2 SUB SWAP1 REVERT JUMPDEST PUSH1 0x1 DUP1 DUP4 DUP2 SLOAD DUP2 LT PUSH2 0x701 JUMPI PUSH2 0x700 PUSH2 0xEBD JUMP JUMPDEST JUMPDEST SWAP1 PUSH0 MSTORE PUSH1 0x20 PUSH0 KECCAK256 SWAP1 PUSH1 0x3 MUL ADD PUSH1 0x1 ADD PUSH0 PUSH2 0x100 EXP DUP2 SLOAD DUP2 PUSH1 0xFF MUL NOT AND SWAP1 DUP4 ISZERO ISZERO MUL OR SWAP1 SSTORE POP CALLER PUSH1 0x1 DUP4 DUP2 SLOAD DUP2 LT PUSH2 0x73B JUMPI PUSH2 0x73A PUSH2 0xEBD JUMP JUMPDEST JUMPDEST SWAP1 PUSH0 MSTORE PUSH1 0x20 PUSH0 KECCAK256 SWAP1 PUSH1 0x3 MUL ADD PUSH1 0x1 ADD PUSH1 0x1 PUSH2 0x100 EXP DUP2 SLOAD DUP2 PUSH20 0xFFFFFFFFFFFFFFFFFFFFFFFFFFFFFFFFFFFFFFFF MUL NOT AND SWAP1 DUP4 PUSH20 0xFFFFFFFFFFFFFFFFFFFFFFFFFFFFFFFFFFFFFFFF AND MUL OR SWAP1 SSTORE POP DUP1 PUSH1 0x1 DUP4 DUP2 SLOAD DUP2 LT PUSH2 0x79D JUMPI PUSH2 0x79C PUSH2 0xEBD JUMP JUMPDEST JUMPDEST SWAP1 PUSH0 MSTORE PUSH1 0x20 PUSH0 KECCAK256 SWAP1 PUSH1 0x3 MUL ADD PUSH1 0x2 ADD SWAP1 DUP2 PUSH2 0x7B8 SWAP2 SWAP1 PUSH2 0xDEE JUMP JUMPDEST POP POP POP JUMP JUMPDEST PUSH0 PUSH0 SWAP1 SLOAD SWAP1 PUSH2 0x100 EXP SWAP1 DIV PUSH20 0xFFFFFFFFFFFFFFFFFFFFFFFFFFFFFFFFFFFFFFFF AND DUP2 JUMP JUMPDEST PUSH0 PUSH1 0x40 MLOAD SWAP1 POP SWAP1 JUMP JUMPDEST PUSH0 PUSH0 REVERT JUMPDEST PUSH0 PUSH0 REVERT JUMPDEST PUSH0 PUSH0 REVERT JUMPDEST PUSH0 PUSH0 REVERT JUMPDEST PUSH0 PUSH1 0x1F NOT PUSH1 0x1F DUP4 ADD AND SWAP1 POP SWAP2 SWAP1 POP JUMP JUMPDEST PUSH32 0x4E487B7100000000000000000000000000000000000000000000000000000000 PUSH0 MSTORE PUSH1 0x41 PUSH1 0x4 MSTORE PUSH1 0x24 PUSH0 REVERT JUMPDEST PUSH2 0x840 DUP3 PUSH2 0x7FA JUMP JUMPDEST DUP2 ADD DUP2 DUP2 LT PUSH8 0xFFFFFFFFFFFFFFFF DUP3 GT OR ISZERO PUSH2 0x85F JUMPI PUSH2 0x85E PUSH2 0x80A JUMP JUMPDEST JUMPDEST DUP1 PUSH1 0x40 MSTORE POP POP POP JUMP JUMPDEST PUSH0 PUSH2 0x871 PUSH2 0x7E1 JUMP JUMPDEST SWAP1 POP PUSH2 0x87D DUP3 DUP3 PUSH2 0x837 JUMP JUMPDEST SWAP2 SWAP1 POP JUMP JUMPDEST PUSH0 PUSH8 0xFFFFFFFFFFFFFFFF DUP3 GT ISZERO PUSH2 0x89C JUMPI PUSH2 0x89B PUSH2 0x80A JUMP JUMPDEST JUMPDEST PUSH2 0x8A5 DUP3 PUSH2 0x7FA JUMP JUMPDEST SWAP1 POP PUSH1 0x20 DUP2 ADD SWAP1 POP SWAP2 SWAP1 POP JUMP JUMPDEST DUP3 DUP2 DUP4 CALLDATACOPY PUSH0 DUP4 DUP4 ADD MSTORE POP POP POP JUMP JUMPDEST PUSH0 PUSH2 0x8D2 PUSH2 0x8CD DUP5 PUSH2 0x882 JUMP JUMPDEST PUSH2 0x868 JUMP JUMPDEST SWAP1 POP DUP3 DUP2 MSTORE PUSH1 0x20 DUP2 ADD DUP5 DUP5 DUP5 ADD GT ISZERO PUSH2 0x8EE JUMPI PUSH2 0x8ED PUSH2 0x7F6 JUMP JUMPDEST JUMPDEST PUSH2 0x8F9 DUP5 DUP3 DUP6 PUSH2 0x8B2 JUMP JUMPDEST POP SWAP4 SWAP3 POP POP POP JUMP JUMPDEST PUSH0 DUP3 PUSH1 0x1F DUP4 ADD SLT PUSH2 0x915 JUMPI PUSH2 0x914 PUSH2 0x7F2 JUMP JUMPDEST JUMPDEST DUP2 CALLDATALOAD PUSH2 0x925 DUP5 DUP3 PUSH1 0x20 DUP7 ADD PUSH2 0x8C0 JUMP JUMPDEST SWAP2 POP POP SWAP3 SWAP2 POP POP JUMP JUMPDEST PUSH0 PUSH1 0x20 DUP3 DUP5 SUB SLT ISZERO PUSH2 0x943 JUMPI PUSH2 0x942 PUSH2 0x7EA JUMP JUMPDEST JUMPDEST PUSH0 DUP3 ADD CALLDATALOAD PUSH8 0xFFFFFFFFFFFFFFFF DUP2 GT ISZERO PUSH2 0x960 JUMPI PUSH2 0x95F PUSH2 0x7EE JUMP JUMPDEST JUMPDEST PUSH2 0x96C DUP5 DUP3 DUP6 ADD PUSH2 0x901 JUMP JUMPDEST SWAP2 POP POP SWAP3 SWAP2 POP POP JUMP JUMPDEST PUSH0 DUP2 SWAP1 POP SWAP2 SWAP1 POP JUMP JUMPDEST PUSH2 0x987 DUP2 PUSH2 0x975 JUMP JUMPDEST DUP2 EQ PUSH2 0x991 JUMPI PUSH0 PUSH0 REVERT JUMPDEST POP JUMP JUMPDEST PUSH0 DUP2 CALLDATALOAD SWAP1 POP PUSH2 0x9A2 DUP2 PUSH2 0x97E JUMP JUMPDEST SWAP3 SWAP2 POP POP JUMP JUMPDEST PUSH0 PUSH1 0x20 DUP3 DUP5 SUB SLT ISZERO PUSH2 0x9BD JUMPI PUSH2 0x9BC PUSH2 0x7EA JUMP JUMPDEST JUMPDEST PUSH0 PUSH2 0x9CA DUP5 DUP3 DUP6 ADD PUSH2 0x994 JUMP JUMPDEST SWAP2 POP POP SWAP3 SWAP2 POP POP JUMP JUMPDEST PUSH0 DUP2 MLOAD SWAP1 POP SWAP2 SWAP1 POP JUMP JUMPDEST PUSH0 DUP3 DUP3 MSTORE PUSH1 0x20 DUP3 ADD SWAP1 POP SWAP3 SWAP2 POP POP JUMP JUMPDEST DUP3 DUP2 DUP4 MCOPY PUSH0 DUP4 DUP4 ADD MSTORE POP POP POP JUMP JUMPDEST PUSH0 PUSH2 0xA05 DUP3 PUSH2 0x9D3 JUMP JUMPDEST PUSH2 0xA0F DUP2 DUP6 PUSH2 0x9DD JUMP JUMPDEST SWAP4 POP PUSH2 0xA1F DUP2 DUP6 PUSH1 0x20 DUP7 ADD PUSH2 0x9ED JUMP JUMPDEST PUSH2 0xA28 DUP2 PUSH2 0x7FA JUMP JUMPDEST DUP5 ADD SWAP2 POP POP SWAP3 SWAP2 POP POP JUMP JUMPDEST PUSH0 DUP2 ISZERO ISZERO SWAP1 POP SWAP2 SWAP1 POP JUMP JUMPDEST PUSH2 0xA47 DUP2 PUSH2 0xA33 JUMP JUMPDEST DUP3 MSTORE POP POP JUMP JUMPDEST PUSH0 PUSH20 0xFFFFFFFFFFFFFFFFFFFFFFFFFFFFFFFFFFFFFFFF DUP3 AND SWAP1 POP SWAP2 SWAP1 POP JUMP JUMPDEST PUSH0 PUSH2 0xA76 DUP3 PUSH2 0xA4D JUMP JUMPDEST SWAP1 POP SWAP2 SWAP1 POP JUMP JUMPDEST PUSH2 0xA86 DUP2 PUSH2 0xA6C JUMP JUMPDEST DUP3 MSTORE POP POP JUMP JUMPDEST PUSH0 PUSH1 0x80 DUP3 ADD SWAP1 POP DUP2 DUP2 SUB PUSH0 DUP4 ADD MSTORE PUSH2 0xAA4 DUP2 DUP8 PUSH2 0x9FB JUMP JUMPDEST SWAP1 POP PUSH2 0xAB3 PUSH1 0x20 DUP4 ADD DUP7 PUSH2 0xA3E JUMP JUMPDEST PUSH2 0xAC0 PUSH1 0x40 DUP4 ADD DUP6 PUSH2 0xA7D JUMP JUMPDEST DUP2 DUP2 SUB PUSH1 0x60 DUP4 ADD MSTORE PUSH2 0xAD2 DUP2 DUP5 PUSH2 0x9FB JUMP JUMPDEST SWAP1 POP SWAP6 SWAP5 POP POP POP POP POP JUMP JUMPDEST PUSH2 0xAE6 DUP2 PUSH2 0x975 JUMP JUMPDEST DUP3 MSTORE POP POP JUMP JUMPDEST PUSH0 PUSH1 0x20 DUP3 ADD SWAP1 POP PUSH2 0xAFF PUSH0 DUP4 ADD DUP5 PUSH2 0xADD JUMP JUMPDEST SWAP3 SWAP2 POP POP JUMP JUMPDEST PUSH0 PUSH0 PUSH1 0x40 DUP4 DUP6 SUB SLT ISZERO PUSH2 0xB1B JUMPI PUSH2 0xB1A PUSH2 0x7EA JUMP JUMPDEST JUMPDEST PUSH0 PUSH2 0xB28 DUP6 DUP3 DUP7 ADD PUSH2 0x994 JUMP JUMPDEST SWAP3 POP POP PUSH1 0x20 DUP4 ADD CALLDATALOAD PUSH8 0xFFFFFFFFFFFFFFFF DUP2 GT ISZERO PUSH2 0xB49 JUMPI PUSH2 0xB48 PUSH2 0x7EE JUMP JUMPDEST JUMPDEST PUSH2 0xB55 DUP6 DUP3 DUP7 ADD PUSH2 0x901 JUMP JUMPDEST SWAP2 POP POP SWAP3 POP SWAP3 SWAP1 POP JUMP JUMPDEST PUSH0 PUSH1 0x20 DUP3 ADD SWAP1 POP PUSH2 0xB72 PUSH0 DUP4 ADD DUP5 PUSH2 0xA7D JUMP JUMPDEST SWAP3 SWAP2 POP POP JUMP JUMPDEST PUSH32 0x48616E79612061646D696E000000000000000000000000000000000000000000 PUSH0 DUP3 ADD MSTORE POP JUMP JUMPDEST PUSH0 PUSH2 0xBAC PUSH1 0xB DUP4 PUSH2 0x9DD JUMP JUMPDEST SWAP2 POP PUSH2 0xBB7 DUP3 PUSH2 0xB78 JUMP JUMPDEST PUSH1 0x20 DUP3 ADD SWAP1 POP SWAP2 SWAP1 POP JUMP JUMPDEST PUSH0 PUSH1 0x20 DUP3 ADD SWAP1 POP DUP2 DUP2 SUB PUSH0 DUP4 ADD MSTORE PUSH2 0xBD9 DUP2 PUSH2 0xBA0 JUMP JUMPDEST SWAP1 POP SWAP2 SWAP1 POP JUMP JUMPDEST PUSH32 0x4E487B7100000000000000000000000000000000000000000000000000000000 PUSH0 MSTORE PUSH1 0x22 PUSH1 0x4 MSTORE PUSH1 0x24 PUSH0 REVERT JUMPDEST PUSH0 PUSH1 0x2 DUP3 DIV SWAP1 POP PUSH1 0x1 DUP3 AND DUP1 PUSH2 0xC24 JUMPI PUSH1 0x7F DUP3 AND SWAP2 POP JUMPDEST PUSH1 0x20 DUP3 LT DUP2 SUB PUSH2 0xC37 JUMPI PUSH2 0xC36 PUSH2 0xBE0 JUMP JUMPDEST JUMPDEST POP SWAP2 SWAP1 POP JUMP JUMPDEST PUSH0 DUP2 SWAP1 POP DUP2 PUSH0 MSTORE PUSH1 0x20 PUSH0 KECCAK256 SWAP1 POP SWAP2 SWAP1 POP JUMP JUMPDEST PUSH0 PUSH1 0x20 PUSH1 0x1F DUP4 ADD DIV SWAP1 POP SWAP2 SWAP1 POP JUMP JUMPDEST PUSH0 DUP3 DUP3 SHL SWAP1 POP SWAP3 SWAP2 POP POP JUMP JUMPDEST PUSH0 PUSH1 0x8 DUP4 MUL PUSH2 0xC99 PUSH32 0xFFFFFFFFFFFFFFFFFFFFFFFFFFFFFFFFFFFFFFFFFFFFFFFFFFFFFFFFFFFFFFFF DUP3 PUSH2 0xC5E JUMP JUMPDEST PUSH2 0xCA3 DUP7 DUP4 PUSH2 0xC5E JUMP JUMPDEST SWAP6 POP DUP1 NOT DUP5 AND SWAP4 POP DUP1 DUP7 AND DUP5 OR SWAP3 POP POP POP SWAP4 SWAP3 POP POP POP JUMP JUMPDEST PUSH0 DUP2 SWAP1 POP SWAP2 SWAP1 POP JUMP JUMPDEST PUSH0 PUSH2 0xCDE PUSH2 0xCD9 PUSH2 0xCD4 DUP5 PUSH2 0x975 JUMP JUMPDEST PUSH2 0xCBB JUMP JUMPDEST PUSH2 0x975 JUMP JUMPDEST SWAP1 POP SWAP2 SWAP1 POP JUMP JUMPDEST PUSH0 DUP2 SWAP1 POP SWAP2 SWAP1 POP JUMP JUMPDEST PUSH2 0xCF7 DUP4 PUSH2 0xCC4 JUMP JUMPDEST PUSH2 0xD0B PUSH2 0xD03 DUP3 PUSH2 0xCE5 JUMP JUMPDEST DUP5 DUP5 SLOAD PUSH2 0xC6A JUMP JUMPDEST DUP3 SSTORE POP POP POP POP JUMP JUMPDEST PUSH0 PUSH0 SWAP1 POP SWAP1 JUMP JUMPDEST PUSH2 0xD22 PUSH2 0xD13 JUMP JUMPDEST PUSH2 0xD2D DUP2 DUP5 DUP5 PUSH2 0xCEE JUMP JUMPDEST POP POP POP JUMP JUMPDEST PUSH0 JUMPDEST DUP3 DUP2 LT ISZERO PUSH2 0xD53 JUMPI PUSH2 0xD48 PUSH0 DUP3 DUP5 ADD PUSH2 0xD1A JUMP JUMPDEST PUSH1 0x1 DUP2 ADD SWAP1 POP PUSH2 0xD34 JUMP JUMPDEST POP POP POP JUMP JUMPDEST PUSH1 0x1F DUP3 GT ISZERO PUSH2 0xDA6 JUMPI DUP3 DUP3 GT ISZERO PUSH2 0xDA5 JUMPI PUSH2 0xD72 DUP2 PUSH2 0xC3D JUMP JUMPDEST PUSH2 0xD7B DUP4 PUSH2 0xC4F JUMP JUMPDEST PUSH2 0xD84 DUP6 PUSH2 0xC4F JUMP JUMPDEST PUSH1 0x20 DUP7 LT ISZERO PUSH2 0xD91 JUMPI PUSH0 SWAP1 POP JUMPDEST DUP1 DUP4 ADD PUSH2 0xDA0 DUP3 DUP5 SUB DUP3 PUSH2 0xD32 JUMP JUMPDEST POP POP POP POP JUMPDEST JUMPDEST POP POP POP JUMP JUMPDEST PUSH0 DUP3 DUP3 SHR SWAP1 POP SWAP3 SWAP2 POP POP JUMP JUMPDEST PUSH0 PUSH2 0xDC6 PUSH0 NOT DUP5 PUSH1 0x8 MUL PUSH2 0xDAB JUMP JUMPDEST NOT DUP1 DUP4 AND SWAP2 POP POP SWAP3 SWAP2 POP POP JUMP JUMPDEST PUSH0 PUSH2 0xDDE DUP4 DUP4 PUSH2 0xDB7 JUMP JUMPDEST SWAP2 POP DUP3 PUSH1 0x2 MUL DUP3 OR SWAP1 POP SWAP3 SWAP2 POP POP JUMP JUMPDEST PUSH2 0xDF7 DUP3 PUSH2 0x9D3 JUMP JUMPDEST PUSH8 0xFFFFFFFFFFFFFFFF DUP2 GT ISZERO PUSH2 0xE10 JUMPI PUSH2 0xE0F PUSH2 0x80A JUMP JUMPDEST JUMPDEST PUSH2 0xE1A DUP3 SLOAD PUSH2 0xC0D JUMP JUMPDEST PUSH2 0xE25 DUP3 DUP3 DUP6 PUSH2 0xD58 JUMP JUMPDEST PUSH0 PUSH1 0x20 SWAP1 POP PUSH1 0x1F DUP4 GT PUSH1 0x1 DUP2 EQ PUSH2 0xE56 JUMPI PUSH0 DUP5 ISZERO PUSH2 0xE44 JUMPI DUP3 DUP8 ADD MLOAD SWAP1 POP JUMPDEST PUSH2 0xE4E DUP6 DUP3 PUSH2 0xDD3 JUMP JUMPDEST DUP7 SSTORE POP PUSH2 0xEB5 JUMP JUMPDEST PUSH1 0x1F NOT DUP5 AND PUSH2 0xE64 DUP7 PUSH2 0xC3D JUMP JUMPDEST PUSH0 JUMPDEST DUP3 DUP2 LT ISZERO PUSH2 0xE8B JUMPI DUP5 DUP10 ADD MLOAD DUP3 SSTORE PUSH1 0x1 DUP3 ADD SWAP2 POP PUSH1 0x20 DUP6 ADD SWAP5 POP PUSH1 0x20 DUP2 ADD SWAP1 POP PUSH2 0xE66 JUMP JUMPDEST DUP7 DUP4 LT ISZERO PUSH2 0xEA8 JUMPI DUP5 DUP10 ADD MLOAD PUSH2 0xEA4 PUSH1 0x1F DUP10 AND DUP3 PUSH2 0xDB7 JUMP JUMPDEST DUP4 SSTORE POP JUMPDEST PUSH1 0x1 PUSH1 0x2 DUP9 MUL ADD DUP9 SSTORE POP POP POP JUMPDEST POP POP POP POP POP POP JUMP JUMPDEST PUSH32 0x4E487B7100000000000000000000000000000000000000000000000000000000 PUSH0 MSTORE PUSH1 0x32 PUSH1 0x4 MSTORE PUSH1 0x24 PUSH0 REVERT JUMPDEST PUSH32 0x494420746964616B2076616C6964000000000000000000000000000000000000 PUSH0 DUP3 ADD MSTORE POP JUMP JUMPDEST PUSH0 PUSH2 0xF1E PUSH1 0xE DUP4 PUSH2 0x9DD JUMP JUMPDEST SWAP2 POP PUSH2 0xF29 DUP3 PUSH2 0xEEA JUMP JUMPDEST PUSH1 0x20 DUP3 ADD SWAP1 POP SWAP2 SWAP1 POP JUMP JUMPDEST PUSH0 PUSH1 0x20 DUP3 ADD SWAP1 POP DUP2 DUP2 SUB PUSH0 DUP4 ADD MSTORE PUSH2 0xF4B DUP2 PUSH2 0xF12 JUMP JUMPDEST SWAP1 POP SWAP2 SWAP1 POP JUMP JUMPDEST PUSH32 0x416C6174207375646168206469706573616E0000000000000000000000000000 PUSH0 DUP3 ADD MSTORE POP JUMP JUMPDEST PUSH0 PUSH2 0xF86 PUSH1 0x12 DUP4 PUSH2 0x9DD JUMP JUMPDEST SWAP2 POP PUSH2 0xF91 DUP3 PUSH2 0xF52 JUMP JUMPDEST PUSH1 0x20 DUP3 ADD SWAP1 POP SWAP2 SWAP1 POP JUMP JUMPDEST PUSH0 PUSH1 0x20 DUP3 ADD SWAP1 POP DUP2 DUP2 SUB PUSH0 DUP4 ADD MSTORE PUSH2 0xFB3 DUP2 PUSH2 0xF7A JUMP JUMPDEST SWAP1 POP SWAP2 SWAP1 POP JUMP INVALID LOG2 PUSH5 0x6970667358 0x22 SLT KECCAK256 0xF7 SWAP12 CODESIZE BASEFEE 0x4F 0xF6 0xA9 0xC5 PUSH32 0x851AC96AE0F38CCC9461C24BFFA004178718B1AAC9F8BE64736F6C6343000822 STOP CALLER "
				},
				"gasEstimates": {
					"creation": {
						"codeDepositCost": "816000",
						"executionCost": "25113",
						"totalCost": "841113"
					},
					"external": {
						"admin()": "2595",
						"bookingAlat(uint256,string)": "infinite",
						"daftarAlat(uint256)": "infinite",
						"jumlahAlat()": "2484",
						"lihatAlat(uint256)": "infinite",
						"tambahAlat(string)": "infinite"
					}
				},
				"methodIdentifiers": {
					"admin()": "f851a440",
					"bookingAlat(uint256,string)": "ade52d8d",
					"daftarAlat(uint256)": "62a6782f",
					"jumlahAlat()": "9cb9119b",
					"lihatAlat(uint256)": "2efd9e6b",
					"tambahAlat(string)": "273e7049"
				}
			},
			"storageLayout": {
				"storage": [
					{
						"astId": 3,
						"contract": "bookingalattani.sol:BookingAlatTani",
						"label": "admin",
						"offset": 0,
						"slot": "0",
						"type": "t_address"
					},
					{
						"astId": 25,
						"contract": "bookingalattani.sol:BookingAlatTani",
						"label": "daftarAlat",
						"offset": 0,
						"slot": "1",
						"type": "t_array(t_struct(Alat)21_storage)dyn_storage"
					}
				],
				"types": {
					"t_address": {
						"encoding": "inplace",
						"label": "address",
						"numberOfBytes": "20"
					},
					"t_array(t_struct(Alat)21_storage)dyn_storage": {
						"base": "t_struct(Alat)21_storage",
						"encoding": "dynamic_array",
						"label": "struct BookingAlatTani.Alat[]",
						"numberOfBytes": "32"
					},
					"t_bool": {
						"encoding": "inplace",
						"label": "bool",
						"numberOfBytes": "1"
					},
					"t_string_storage": {
						"encoding": "bytes",
						"label": "string",
						"numberOfBytes": "32"
					},
					"t_struct(Alat)21_storage": {
						"encoding": "inplace",
						"label": "struct BookingAlatTani.Alat",
						"members": [
							{
								"astId": 14,
								"contract": "bookingalattani.sol:BookingAlatTani",
								"label": "nama",
								"offset": 0,
								"slot": "0",
								"type": "t_string_storage"
							},
							{
								"astId": 16,
								"contract": "bookingalattani.sol:BookingAlatTani",
								"label": "terpesan",
								"offset": 0,
								"slot": "1",
								"type": "t_bool"
							},
							{
								"astId": 18,
								"contract": "bookingalattani.sol:BookingAlatTani",
								"label": "pemesan",
								"offset": 1,
								"slot": "1",
								"type": "t_address"
							},
							{
								"astId": 20,
								"contract": "bookingalattani.sol:BookingAlatTani",
								"label": "jadwal",
								"offset": 0,
								"slot": "2",
								"type": "t_string_storage"
							}
						],
						"numberOfBytes": "96"
					}
				}
			},
			"userdoc": {
				"kind": "user",
				"methods": {},
				"version": 1
			}
		}
	}
}